S00F00004279676765726E2E7372656347
S11300000C94B4010C94D1010C94D1010C94D10141
S11300100C94D1010C94D1010C94D1010C94D10114
S11300200C94D1010C94D1010C94D1010C94D10104
S11300300C94D1010C94D1010C94D1010C94D101F4
S11300400C94D1010C94D1010C94D1010C94D101E4
S11300500C94D1010C94D1010C94D1010C94D101D4
S11300600C94D1010C94D1010C94D1010C94D101C4
S1130070000000000000000000065F5F06000000B2
S11300800007070007070000147F7F147F7F140018
S1130090242E6B6B3A120000466630180C66620020
S11300A0307A4F5D377A48000407030000000000EF
S11300B0001C3E63410000000041633E1C00000040
S11300C0082A3E1C1C3E2A0808083E3E0808000078
S11300D000A0E0600000000008080808080800000C
S11300E000006060000000006030180C060301008E
S11300F03E7F594D7F3E000042427F7F40400000DA
S1130100627359496F660000226349497F360000D3
S1130110181C16137F7F1000276745457D390000A2
S11301203C7E4B4979300000036371190F070000CE
S1130130367F49497F360000064F49693F1E00005B
S113014000006C6C0000000000A0EC6C00000000DB
S1130150081C366341000000141414141414000025
S1130160004163361C080000020351590F060000C9
S11301703E7F415D5D1F1E007C7E13137E7C00006C
S1130180417F7F49497F36001C3E63414163220021
S1130190417F7F41637F1C00417F7F495D41630054
S11301A0417F7F491D0103001C3E6341517372006E
S11301B07F7F08087F7F000000417F7F41000000AF
S11301C0307040417F3F0100417F7F081C7763000E
S11301D0417F7F41406070007F7F060C067F7F0077
S11301E07F7F060C187F7F001C3E6341633E1C002A
S11301F0417F7F49090F06001E3F21717F5E000089
S1130200417F7F19396F460026674D597B320000C4
S113021003417F7F410300007F7F40407F7F0000D8
S11302201F3F60603F1F00007F7F3018307F7F00DA
S113023063771C081C776300074F78784F0700002A
S11302406773594D47637100007F7F41410000008F
S11302500103060C183060000041417F7F0000005C
S1130260080C0603060C0800808080808080808053
S11302700000030704000000207454543C7840003C
S1130280413F7F44447C3800387C44446C2800005F
S1130290307848493F7F4000387C54545C18000053
S11302A0487E7F490302000098BCA4A4F87C0400A3
S11302B0417F7F08047C780000447D7D400000007D
S11302C040C484FD7D000000417F7F10386C4400F1
S11302D000417F7F400000007C7C0C180C7C78007F
S11302E07C7C04047C780000387C44447C38000026
S11302F084FCF8A4243C1800183C24A4F8FC8400D2
S1130300447C78441C180000485C54547424000055
S113031000043E7F442400003C7C40403C7C400080
S11303201C3C60603C1C00003C7C6030607C3C00F9
S1130330446C3810386C44009CBCA0A0FC7C0000C9
S11303404C64745C4C64000008083E774141000032
S113035000000077770000004141773E0808000064
S1130360020301030203010011241FBECFEFD4E0F6
S1130370DEBFCDBF11E0A0E0B1E0EAE8F0E102C0E9
S113038005900D92A431B107D9F722E0A4E1B1E0C0
S113039001C01D92AB3AB207E1F70E9496030C9498
S11303A043080C94000028B32D7F28BB41E00E9431
S11303B06203089528B3226028BB41E00E946203CF
S11303C00895CF93DF93CDB7DEB72F970FB6F89488
S11303D0DEBF0FBECDBF8EEA898361E070E0CE013F
S11303E001960E94D30181EA8A8361E070E0CE0124
S11303F002960E94D30188EC8B8361E070E0CE0109
S113040003960E94D30185ED8C8380E88D8362E09E
S113041070E0CE0104960E94D30181E88E838FEFB1
S11304208F8362E070E0CE0106960E94D30189EDCD
S1130430888781E2898762E070E0CE0108960E9495
S1130440D30180E28A8782E08B8762E070E0CE018C
S11304500A960E94D30180EB8C8761E070E0CE01A4
S11304600C960E94D30184EA8D8761E070E0CE018E
S11304700D960E94D30186EA8E8761E070E0CE017A
S11304800E960E94D3018FEA8F8761E070E0CE015F
S11304900F960E94D3012F960FB6F894DEBF0FBEBD
S11304A0CDBFDF91CF9108951F93CF93DF931F9218
S11304B0CDB7DEB780E090E005C0FC01EC5EFE4FF6
S11304C01082019680389105C4F310E010C0812F8A
S11304D0806B898361E070E0CE0101960E94D301B4
S11304E060E870E084E191E00E94DA011F5F183057
S11304F070F30F90DF91CF911F910895CF92DF9207
S1130500EF92FF920F931F93CF93DF937C0100E050
S113051010E035C0C801880F991F880F991F880FF4
S1130520991F8C0F9D1FA0910601B0910701A80F80
S1130530B91FF701EC0DFD1DE081F0E0B097EE0F5F
S1130540FF1FEE0FFF1FEE0FFF1FEC0FFD1FE05903
S1130550FF4FE491EC932091060130910701F901DA
S1130560E80FF91F808190E00E943004219602C0B8
S1130570C0E0D0E0C830D1056CF20F5F1F4FF70127
S113058001900020E9F73197EE19FF0968010E1771
S11305901F0770F3DF91CF911F910F91FF90EF90A0
S11305A0DF90CF900895CF92DF92EF92FF920F9356
S11305B01F93CF93DF931F92CDB7DEB7C12CD12CFD
S11305C03EC08C2D806B898361E070E0CE01019682
S11305D00E94D301E12CF12C2BC086011695102F1B
S11305E00027179507950E0D1F1DE0910601F09148
S11305F00701E00FF11F80811F928F9388E091E043
S11306009F938F930E941A04809106019091070191
S1130610FC01E00FF11F808160E870E090E00E942F
S1130620DA018FEFE81AF80A0F900F900F900F90ED
S113063080E8E816F1048CF28FEFC81AD80A88E033
S1130640C816D1040CF4BDCF0F90DF91CF911F9148
S11306500F91FF90EF90DF90CF9008950E94900348
S113066080E090E004C0FC01FC5E108201968115DC
S113067024E09207C0F308958DB181658DB98EEBA6
S113068087BB88B38E6188BB0895811104C088B389
S11306908F7E88BB0895813019F488B3877F88BB27
S11306A00895811104C088B3806188BB08958130A6
S11306B019F488B3886088BB08958FB9779BFECFFF
S11306C08FB10895EF92FF920F931F93CF93DF930F
S11306D07C018B01D42F842F0E944503C0E011C0FC
S11306E0F701EC0FF11D80810E945D03C11104C06C
S11306F082E58A95F1F704C088E08A95F1F7000055
S1130700CF5F8C2F90E08017910754F38D2F0E94B8
S11307105103DF91CF911F910F91FF90EF900895B6
S113072085B7806885BF80E280BF08958FE190E03F
S11307300E94C2030E943C030E94E1010E945402F1
S11307400E942E038BE091E00E947E02C0E1D1E082
S1130750DF93CF930E941A04DF93CF930E941A046D
S11307600E94D3020F900F900F900F90FFCF5D9BCC
S1130770FECF8CB980E090E008955F9BFECF8CB1F2
S113078090E0089590BD89B988E18AB98EE880BD6A
S11307906DEB73E087EB93E00E94CF0308950F9312
S11307A01F93CF93DF93009731F46115710519F40A
S11307B080E090E03AC08B01EC016EE070E081E0F3
S11307C090E00E941806FC01892B91F380E8838352
S11307D00115110571F01387028781E883838091E5
S11307E0A1029091A202892B21F4F093A202E0933A
S11307F0A1022097C9F0D187C08783818260838357
S11308008091A3029091A402892B71F4F093A40225
S1130810E093A3028091A5029091A602892B21F472
S1130820F093A602E093A502CF01DF91CF911F912F
S11308300F910895A0E0B0E0E0E2F4E00C941C080D
S1130840AE014B5F5F4FFA0161917191AF018091ED
S1130850A3029091A4020E943704E2E00C943808A9
S11308606091A3027091A4020E9472070895ABE004
S1130870B0E0EDE3F4E00C940C086C017B018A0118
S1130880FC0117821682838181FFCCC1CE010196BF
S11308903C01F6019381F70193FD859193FF8191CA
S11308A07F01882309F4BAC1853239F493FD859117
S11308B093FF81917F01853229F4B60190E00E9473
S11308C07207E7CF912C212C312CFFE1F315D8F0DE
S11308D08B3279F038F4803279F08332A1F4232D0D
S11308E020611DC08D3261F0803369F4232D2160B5
S11308F016C0832D8260382EE32DE4603E2E2AC07C
S1130900F32DF8601DC037FC2DC020ED280F2A30D0
S113091040F08E32B9F436FC81C1232D2064322E8E
S113092019C036FE06C08AE0989E200D1124922E2E
S113093011C0EAE02E9E200D1124222EF32DF06228
S11309403F2E08C08C3621F4832D8068382E02C0D7
S1130950883641F4F70193FD859193FF81917F01DE
S11309608111B3CF982F9F7D9554933028F40C5F59
S11309701F4F9FE399830DC0833631F0833771F0A5
S1130980833509F059C021C0F801808189830E5F45
S11309901F4F88248394912C530113C02801F2E043
S11309A04F0E511CF801A080B18036FE03C0692DA2
S11309B070E002C06FEF7FEFC5010E9467074C0132
S11309C08201F32DFF773F2E16C0280122E0420E4C
S11309D0511CF801A080B18036FE03C0692D70E07F
S11309E002C06FEF7FEFC5010E9455074C01F32D44
S11309F0F0683F2E820133FC1BC0822D90E08816E4
S1130A009906B0F4B60180E290E00E9472072A943D
S1130A10F4CFF50137FC859137FE81915F01B60172
S1130A2090E00E94720721102A9421E0821A910812
S1130A308114910471F7E8C0843611F0893641F5C8
S1130A40F80137FE07C060817181828193810C5F58
S1130A501F4F08C060817181072E000C880B990B11
S1130A600E5F1F4FF32DFF763F2E97FF09C0909521
S1130A708095709561957F4F8F4F9F4FF0683F2E03
S1130A802AE030E0A3010E94AE07882E861845C0F4
S1130A90853731F4232D2F7EB22E2AE030E025C095
S1130AA0932D997FB92E8F36C1F018F4883579F0DB
S1130AB0B5C0803719F0883721F0B0C0E92FE06164
S1130AC0BE2EB4FE0DC0FB2DF460BF2E09C034FE53
S1130AD00AC0292F2660B22E06C028E030E005C0E7
S1130AE020E130E002C020E132E0F801B7FE07C0A7
S1130AF060817181828193810C5F1F4F06C0608188
S1130B00718180E090E00E5F1F4FA3010E94AE0749
S1130B10882E8618FB2DFF773F2E36FE0DC0232D21
S1130B202E7FA22E891458F434FE0BC032FC09C067
S1130B30832D8E7EA82E05C0B82CA32C03C0B82C00
S1130B4001C0B92CA4FE0FC0FE01E80DF11D808187
S1130B50803321F49A2D997EA92E09C0A2FE06C0E5
S1130B60B394B39404C08A2D867809F0B394A3FC9B
S1130B7011C0A0FE06C0B21488F4280C922C9B1855
S1130B800EC0B21460F4B60180E290E00E947207D5
S1130B90B394F7CFB21418F42B1802C0982C212C5C
S1130BA0A4FE10C0B60180E390E00E947207A2FE8A
S1130BB017C0A1FC03C088E790E002C088E590E07C
S1130BC0B6010CC08A2D867859F0A1FE02C08BE2D2
S1130BD001C080E2A7FC8DE2B60190E00E9472079A
S1130BE0891438F4B60180E390E00E9472079A9465
S1130BF0F7CF8A94F301E80DF11D8081B60190E0EE
S1130C000E9472078110F5CF222009F442CEB6016A
S1130C1080E290E00E9472072A94F6CFF601868162
S1130C20978102C08FEF9FEF2B96E2E10C94280886
S1130C300F931F93CF93DF93869F8001879F100D9F
S1130C40969F100D1124C8010E943406EC010097F0
S1130C5029F0A80160E070E00E946007CE01DF91F6
S1130C60CF911F910F9108950F931F93CF93DF930B
S1130C708230910510F482E090E0E091A902F091B5
S1130C80AA0220E030E0A0E0B0E0309719F1408102
S1130C9051810281138148175907C8F084179507B9
S1130CA069F4109731F012960C93129713961C93D3
S1130CB027C00093A9021093AA0222C0211531056E
S1130CC019F04217530718F49A01BD01EF01DF012F
S1130CD0F801DBCF21153105F9F0281B390B24303D
S1130CE0310580F48A819B816115710521F0FB0136
S1130CF09383828304C09093AA028093A902FE0185
S1130D00329644C0FE01E20FF31F81939193225067
S1130D103109398328833AC02091A7023091A8026F
S1130D20232B41F420910201309103013093A80256
S1130D302093A70220910001309101012115310572
S1130D4041F42DB73EB74091040150910501241B95
S1130D50350BE091A702F091A802E217F307A0F483
S1130D602E1B3F0B2817390778F0AC014E5F5F4FFD
S1130D702417350748F04E0F5F1F5093A802409385
S1130D80A7028193919302C0E0E0F0E0CF01DF91EC
S1130D90CF911F910F910895CF93DF93009709F49A
S1130DA081C0FC01329713821282A091A902B091F2
S1130DB0AA02109781F420813181820F931F209120
S1130DC0A7023091A8022817390751F5F093A80219
S1130DD0E093A70267C0ED0120E030E0CE17DF0703
S1130DE040F44A815B819E0141155105F1F0EA010D
S1130DF0F5CFD383C28340815181840F951FC817D7
S1130E00D90759F488819981840F951F029691839B
S1130E1080838A819B81938382832115310529F400
S1130E20F093AA02E093A9023DC0E901FB83EA839F
S1130E3049915991C40FD51FEC17FD0761F48081C6
S1130E409181840F951F0296E90199838883828199
S1130E5093819B838A83E0E0F0E012968D919C91CC
S1130E601397009719F0FD01DC01F7CF8D919C9148
S1130E7011979D012E5F3F4F820F931F2091A70270
S1130E803091A8022817390769F4309729F4109291
S1130E90AA021092A90202C013821282B093A8027D
S1130EA0A093A702DF91CF910895FC0105906150B2
S1130EB070400110D8F7809590958E0F9F1F08956C
S1130EC0DC0101C06D9341505040E0F70895FC01EE
S1130ED06150704001900110D8F7809590958E0F65
S1130EE09F1F08950F931F93CF93DF93FB012381DB
S1130EF021FD03C08FEF9FEF2CC022FF16C0468157
S1130F005781248135814217530744F4A081B1816C
S1130F109D012F5F3F4F318320838C93268137813E
S1130F202F5F3F4F3783268314C08B01EC01FB01F5
S1130F300084F185E02D0995892BE1F6D8011696F8
S1130F408D919C911797019617969C938E93169763
S1130F50CE01DF91CF911F910F910895FA01AA2735
S1130F60283051F1203181F1E8946F936E7F6E5FE8
S1130F707F4F8F4F9F4FAF4FB1E03ED0B4E03CD096
S1130F80670F781F891F9A1FA11D680F791F8A1F79
S1130F90911DA11D6A0F711D811D911DA11D20D0E0
S1130FA009F468943F912AE0269F11243019305D9A
S1130FB03193DEF6CF010895462F4770405D41938B
S1130FC0B3E00FD0C9F7F6CF462F4F70405D4A33D8
S1130FD018F0495D31FD4052419302D0A9F7EACFA0
S1130FE0B4E0A6959795879577956795BA95C9F7CF
S1130FF000976105710508959B01AC010A2E0694C2
S11310005795479537952795BA95C9F7620F731F7A
S1131010841F951FA01D08952F923F924F925F92B7
S11310206F927F928F929F92AF92BF92CF92DF92F4
S1131030EF92FF920F931F93CF93DF93CDB7DEB759
S1131040CA1BDB0B0FB6F894DEBF0FBECDBF0994ED
S11310502A88398848885F846E847D848C849B8444
S1131060AA84B984C884DF80EE80FD800C811B8152
S1131070AA81B981CE0FD11D0FB6F894DEBF0FBE81
S10D1080CDBFED010895F894FFCFF1
S113108A0000AB022000001425640061626364005E
S107109A0A0D000037
S9030000FC
