S00F00004279676765726E2E7372656347
S11300000C94B4010C94DC020C94D1010C94D10135
S11300100C94D1010C94D1010C94D1010C94D10114
S11300200C94D1010C94D1010C94D1010C94D10104
S11300300C94D1010C94D1010C94D1010C94D101F4
S11300400C94D1010C94D1010C94D1010C94D101E4
S11300500C94D1010C94D1010C94D1010C94D101D4
S11300600C94D1010C94D1010C94D1010C94D101C4
S1130070000000000000000000065F5F06000000B2
S11300800007070007070000147F7F147F7F140018
S1130090242E6B6B3A120000466630180C66620020
S11300A0307A4F5D377A48000407030000000000EF
S11300B0001C3E63410000000041633E1C00000040
S11300C0082A3E1C1C3E2A0808083E3E0808000078
S11300D000A0E0600000000008080808080800000C
S11300E000006060000000006030180C060301008E
S11300F03E7F594D7F3E000042427F7F40400000DA
S1130100627359496F660000226349497F360000D3
S1130110181C16137F7F1000276745457D390000A2
S11301203C7E4B4979300000036371190F070000CE
S1130130367F49497F360000064F49693F1E00005B
S113014000006C6C0000000000A0EC6C00000000DB
S1130150081C366341000000141414141414000025
S1130160004163361C080000020351590F060000C9
S11301703E7F415D5D1F1E007C7E13137E7C00006C
S1130180417F7F49497F36001C3E63414163220021
S1130190417F7F41637F1C00417F7F495D41630054
S11301A0417F7F491D0103001C3E6341517372006E
S11301B07F7F08087F7F000000417F7F41000000AF
S11301C0307040417F3F0100417F7F081C7763000E
S11301D0417F7F41406070007F7F060C067F7F0077
S11301E07F7F060C187F7F001C3E6341633E1C002A
S11301F0417F7F49090F06001E3F21717F5E000089
S1130200417F7F19396F460026674D597B320000C4
S113021003417F7F410300007F7F40407F7F0000D8
S11302201F3F60603F1F00007F7F3018307F7F00DA
S113023063771C081C776300074F78784F0700002A
S11302406773594D47637100007F7F41410000008F
S11302500103060C183060000041417F7F0000005C
S1130260080C0603060C0800808080808080808053
S11302700000030704000000207454543C7840003C
S1130280413F7F44447C3800387C44446C2800005F
S1130290307848493F7F4000387C54545C18000053
S11302A0487E7F490302000098BCA4A4F87C0400A3
S11302B0417F7F08047C780000447D7D400000007D
S11302C040C484FD7D000000417F7F10386C4400F1
S11302D000417F7F400000007C7C0C180C7C78007F
S11302E07C7C04047C780000387C44447C38000026
S11302F084FCF8A4243C1800183C24A4F8FC8400D2
S1130300447C78441C180000485C54547424000055
S113031000043E7F442400003C7C40403C7C400080
S11303201C3C60603C1C00003C7C6030607C3C00F9
S1130330446C3810386C44009CBCA0A0FC7C0000C9
S11303404C64745C4C64000008083E774141000032
S113035000000077770000004141773E0808000064
S1130360020301030203010011241FBECFEFD4E0F6
S1130370DEBFCDBF11E0A0E0B1E0E2EDF9E102C0E3
S113038005900D92A63DB107D9F721E0A6EDB1E0A5
S113039001C01D92A53FB207E1F70E9466060C94C6
S11303A0E70C0C9400000E9443030E943408089553
S11303B01092001080E009C0E82FF0E09091001046
S11303C0EA52FE4F908300008F5F8430A8F386EDDD
S11303D091E00895CF92DF92EF92FF920F931F93D3
S11303E0CF93DF93CDB7DEB72B970FB6F894DEBF6C
S11303F00FBECDBFC982DA82EB82FC820D831E83DD
S11304002F83388749875A876B87813071F018F0BA
S1130410823031F043C00F2EF1E3FF2EF02D09C0DE
S11304200F2EF1E5FF2EF02D04C00F2EF1E4FF2E68
S1130430F02DD82E09811A81C80196958795969535
S11304408795969587956F2D0E94F90661E06F0D4B
S1130450802F8295880F807E0E94F906EB8064E0ED
S11304606F0D8E2D8F700E94F90600E010E00EC013
S11304706F2D600F6B5FE4E0F0E0EC0FFD1FE00F09
S1130480F11F80810E94F9060F5F1F4F2E2D30E06F
S1130490021713076CF38D2D0E940F072B960FB6CE
S11304A0F894DEBF0FBECDBFDF91CF911F910F91A6
S11304B0FF90EF90DF90CF9008950F931F93CF9309
S11304C0DF938C010E942A07C82FD82FD27081FD98
S11304D002C080FF5CC082E00E94A407C0FF04C089
S11304E080E90E94CD0705C0DD2319F084E90E944C
S11304F0CD070E94C807C82F0E94C8072C2F30E0E0
S1130500220F331F220F331F220F331F829586952C
S11305108770282BF801318320830E94C8070E942A
S1130520C8070E94C807F80182831F928F938181B4
S11305308F9380818F9382E191E09F938F930E94A8
S1130540C5080F900F900F900F900F900F90C0E080
S1130550D0E017C00E94C807F801EC0FFD1F838389
S11305601F928F93DF93CF938DE291E09F938F93AC
S11305700E94C50821960F900F900F900F900F9036
S11305800F90C830D10534F382E00E94B607DF91A2
S1130590CF911F910F9108950E94670781B38B7FBC
S11305A081BB85B7826085BF85B78E7F85BF8BB7DA
S11305B080648BBF789408951F920F920FB60F92A8
S11305C011242F933F934F935F936F937F938F9354
S11305D09F93AF93BF93EF93FF93CF93DF93CDB7E5
S11305E0DEB72C97DEBFCDBF41E06CE2CE010C96A6
S11305F00E94E0068C8580FF09C0CE0101960E940E
S11306005D0240E061E08CE20E943B078C8581FF43
S113061009C0CE0101960E945D0240E062E08CE2D6
S11306200E943B078C8583FF05C040E068E08CE2B4
S11306300E943B078C8584FF05C040E060E18CE2AA
S11306400E943B078C8582FF05C040E064E08CE299
S11306500E943B072C960FB6F894DEBF0FBECDBFA9
S1130660DF91CF91FF91EF91BF91AF919F918F91C6
S11306707F916F915F914F913F912F910F900FBE9A
S11306800F901F90189581B3806181BB81E090E049
S113069090938100809380001092870010928600CE
S11306A0EBE8F0E0808182688083EAE8F0E0808112
S11306B089618083089528B32D7F28BB41E00E947F
S11306C0D207089528B3226028BB41E00E94D207D4
S11306D00895803420F486958695869508958FEF45
S11306E00895CF93DF931F92CDB7DEB70E946903BD
S11306F0806B898361E070E0CE0101960E945B0308
S11307000F90DF91CF910895CF93DF93CDB7DEB7EC
S1130710C058D1090FB6F894DEBF0FBECDBF0E94FA
S1130720710380E090E008C0E1E0F0E0EC0FFD1F11
S1130730E80FF91F1082019680389105ACF360E848
S113074070E0CE0101960E946203C058DF4F0FB6DD
S1130750F894DEBF0FBECDBFDF91CF910895CF9344
S113076080E090E008C0E0910601F0910701E80FF5
S1130770F91F1082019680389105ACF3C0E004C0E3
S11307808C2F0E948403CF5FC830D0F3CF9108959B
S113079088230CF48FEF08951F93CF93DF931F9258
S11307A0CDB7DEB70E94C803182F12951F708F7043
S11307B0898361E070E0CE0101960E945B031061C1
S11307C0198361E070E0CE0101960E945B030F90F3
S11307D0DF91CF911F910895CF93DF93CDB7DEB70B
S11307E02F970FB6F894DEBF0FBECDBF8EEA898374
S11307F061E070E0CE0101960E945B0381EA8A8386
S113080061E070E0CE0102960E945B0388EC8B836A
S113081061E070E0CE0103960E945B0385ED8C835A
S113082080E88D8362E070E0CE0104960E945B0351
S113083081E88E838FEF8F8362E070E0CE010696AD
S11308400E945B0389ED888781E2898762E070E01A
S1130850CE0108960E945B0380E28A8782E08B8740
S113086062E070E0CE010A960E945B0380EB8C8705
S113087061E070E0CE010C960E945B0384EA8D87F0
S113088061E070E0CE010D960E945B0386EA8E87DC
S113089061E070E0CE010E960E945B038FEA8F87C1
S11308A061E070E0CE010F960E945B0380E00E943D
S11308B0CC032F960FB6F894DEBF0FBECDBFDF91E9
S11308C0CF910895CF93DF93EC0180E090E040C096
S11308D0FE0101900020E9F73197DE01AE1BBF0B4A
S11308E0AA0FBB1FAA0FBB1F70E8679FA00DB11D05
S11308F01124A20FB31FFC01EE0FFF1FEE0FFF1F09
S1130900EE0FFF1FAE0FBF1FA05CBF4FE0910601AB
S1130910F0910701AE0FBF1FFE01E40FF51FE08148
S1130920F0E0B097EE0FFF1FEE0FFF1FEE0FFF1F5B
S1130930E20FF31FE059FF4FE491EC932F5F3F4F19
S113094002C020E030E0283031050CF4C1CF01961C
S1130950FE0101900020E9F73197EC1BFD0BAC017F
S11309608E179F0770F3DF91CF9108950F931F9314
S1130970CF93DF931F92CDB7DEB700E010E01BC02A
S1130980802F806B898361E070E0CE0101960E9424
S11309905B032091060130910701C8019695982FB9
S11309A088279795879560E870E0820F931F0E94CF
S11309B062030F5F1F4F0830110514F30F90DF918E
S11309C0CF911F910F9108950E94340880E090E028
S11309D004C0FC01FC5E10820196811524E092079C
S11309E0C0F30895362F3770669566956695E82F9F
S11309F0F0E0CF0120E8629F800D911D1124E09169
S1130A000601F0910701E80FF91F208181E090E0D1
S1130A1002C0880F991F3A95E2F7822B80830895CC
S1130A2040E050E011C0E0910601F09107019A0105
S1130A3090E8899F200D311D1124E20FF31F90814E
S1130A40909590834F5F5F4F4038510564F308954C
S1130A50CF92DF92EF92FF921F93CF93DF93182FE1
S1130A606A017B01C0E0D0E00BC0FE01EE0FFF1F66
S1130A70EC0DFD1D6C2F808191810E9462042196F2
S1130A80CE15DF0594F3812F0E941005DF91CF91DD
S1130A901F91FF90EF90DF90CF9008956817C0F4F6
S1130AA0621710F4261B01C021E0482F50E0461BBA
S1130AB0510934E6349FC001359F900D1124622FF3
S1130AC070E00E9452086536710514F5CB01089553
S1130AD0861708F5461718F4962F941B01C091E069
S1130AE070E0681B710984E6869F9001879F300D32
S1130AF01124692F70E0C9010E94520865367105FE
S1130B0014F064E670E088279927861B970B0895F4
S1130B1084E690E0089580E090E008959C01992394
S1130B2024F422273327281B390BAB01772324F421
S1130B3044275527461B570B4217530744F4853166
S1130B4091056CF48C3E9F4F64F084E00895653108
S1130B5071054CF46C3E7F4F44F084E0089583E0CB
S1130B60089582E0089580E0089581E008950F9348
S1130B701F93CF93DF930E94D8018C01FC018081E5
S1130B8091812091E801291710F49093E801492FED
S1130B9050E04F5F5F4F2091E70130E04217530769
S1130BA014F49093E7012091EA01281710F480933C
S1130BB0EA01482F50E04F5F5F4F2091E90130E098
S1130BC04217530714F48093E901CAEDD1E09C83E2
S1130BD08D8368818C812E854D850E944E059F836F
S1130BE08E836A818D8128894F850E944E0599875D
S1130BF08887688579858E819F810E948E058A8782
S1130C00F80182818C8783818B870000DF91CF91EB
S1130C101F910F91089587B38E7F87BB88B381603E
S1130C2088BB0895CF93DF930E94D801FC012081F3
S1130C30CAEDD1E030E03B832A83818190E099833F
S1130C4088830E940B0690EF9E8786E48D87988B9D
S1130C508F87DF91CF910895CF92DF92EF92FF9229
S1130C600F931F93CF93DF93CDB7DEB72B970FB6B8
S1130C70F894DEBF0FBECDBF1A82198285E08B8344
S1130C80EAEDF1E0F080FC8202810D8314811E8381
S1130C9025812F833285C980DA800F2EF5E0EF2E6F
S1130CA0F02D49855A856B8580E00E94EA012B96D8
S1130CB00FB6F894DEBF0FBECDBFDF91CF911F9169
S1130CC00F91FF90EF90DF90CF900895CF93DF9333
S1130CD0CDB7DEB72A970FB6F894DEBF0FBECDBFEF
S1130CE08FE190E00E9445080E949B070E94D30177
S1130CF00E9412060E94EC030E94AF030E94E404C7
S1130D0060E080E00E94F20460E08FE70E94F20459
S1130D106FE380E00E94F2046FE38FE70E94F20425
S1130D202AE0E8E0F1E0CE010196DC0101900D92A9
S1130D302A95E1F7AC0165E070E082E00E942805A5
S1130D400E94B6040E94CC028BE391E09F938F93A0
S1130D500E94C5080F900F900E94B7050E942C06B0
S1130D600AED11E0F801428520853185868197815D
S1130D701F924F933F932F939F938F938BE491E014
S1130D809F938F930E94C508F801958184811F92D7
S1130D909F931F928F9388E891E09F938F930E9473
S1130DA0C508FFEF2FE781E0F15020408040E1F7D4
S1130DB000C000C00FB6F894DEBF0FBECDBFCCCFCD
S1130DC00F931F93CF93DF938C01D62FC42F82E010
S1130DD00E94A40783E00E94CD072C2F30E0A801D5
S1130DE062E08D2F0E940008DF91CF911F910F9137
S1130DF00895CF93DF93C82FD62F82E00E94A407D3
S1130E0082E00E94CD078D2F0E94CD078C2F0E9477
S1130E10CD0782E00E94B607DF91CF910895CF936A
S1130E20813061F028F0823029F0833029F010C03D
S1130E30C1E805C0C4E803C0C7E801C0C2E882E055
S1130E400E94A4078C2F0E94CD0782E00E94B6075F
S1130E50CF910895CF9382E00E94A40780EA0E9474
S1130E60CD0780E00E94CD07C82F82E00E94B6071C
S1130E708C2FCF9108951F93CF93DF93182FD62FE4
S1130E80C42F82E00E94A40785E00E94CD07812F31
S1130E900E94CD078D2F0E94CD078C2F0E94CD0775
S1130EA082E00E94B607DF91CF911F91089582E0FE
S1130EB00E94A40780EC0E94CD0782E00E94B6073E
S1130EC08FEF9FE20197F1F700C0000008950E94A0
S1130ED0570740E860EE8FE00E943B078FEF9FE2E8
S1130EE00197F1F700C0000040E660E680E60E944A
S1130EF03B0740E660E680E70E943B074FEF6FEF59
S1130F008BE20E943B076AE287E00E94F90669E2ED
S1130F1082E90E94F90668E282E00E94F90640E054
S1130F2060EE8FE00E943B078FEF9FE20197F1F79D
S1130F3000C0000008958DB181658DB98EEB87BB2B
S1130F4088B38E6188BB0895811104C088B38F7EF5
S1130F5088BB0895813021F488B3877F88BB0895C6
S1130F60823019F488B38B7F88BB0895811104C043
S1130F7088B3806188BB0895813021F488B3886088
S1130F8088BB0895823019F488B3846088BB0895BF
S1130F901FB8779BFECF8FB108958FB9779BFECF93
S1130FA08FB10895EF92FF920F931F93CF93DF9326
S1130FB07C018B01D42F842F0E94A407C0E011C0B0
S1130FC0F701EC0FF11D80810E94CD07C11104C00F
S1130FD082E58A95F1F704C088E08A95F1F700006C
S1130FE0CF5F8C2F90E08017910754F38D2F0E94D0
S1130FF0B607DF91CF911F910F91FF90EF90089565
S1131000CF92DF92EF92FF920F931F93CF93DF93D0
S1131010C82F062F6A017901862F0E94A4078C2FFE
S11310200E94CD0782E58A95F1F710E00CC0E60135
S1131030C80FD91F80E00E94CD07888388E08A9575
S1131040F1F700001F5F812F90E08E159F0578F364
S1131050802F0E94B607DF91CF911F910F91FF90CF
S1131060EF90DF90CF90089585B7806885BF80E2C8
S113107080BF08955D9BFECF8CB980E090E0089519
S11310805F9BFECF8CB190E0089590BD89B988E153
S11310908AB98EE880BD60E478E08AE398E00E9433
S11310A07A08089597FB072E16F4009407D077FD6D
S11310B009D00E94660807FC05D03EF490958195FE
S11310C09F4F0895709561957F4F0895AA1BBB1B90
S11310D051E107C0AA1FBB1FA617B70710F0A61B34
S11310E0B70B881F991F5A95A9F780959095BC0155
S11310F0CD0108950F931F93CF93DF93009731F49D
S11311006115710519F480E090E03AC08B01EC019F
S11311106EE070E081E090E00E94BC0AFC01892B43
S113112091F380E883830115110571F01387028719
S113113081E883838091EB019091EC01892B21F468
S1131140F093EC01E093EB012097C9F0D187C087BD
S11311508381826083838091ED019091EE01892BDC
S113116071F4F093EE01E093ED018091EF01909121
S1131170F001892B21F4F093F001E093EF01CF010A
S1131180DF91CF911F910F910895A0E0B0E0EBECB7
S1131190F8E00C94C00CAE014B5F5F4FFA01619113
S11311A07191AF018091ED019091EE010E94DB08F5
S11311B0E2E00C94DC0CABE0B0E0E1EEF8E00C947F
S11311C0B00C6C017B018A01FC01178216828381B9
S11311D081FFCCC1CE0101963C01F6019381F70158
S11311E093FD859193FF81917F01882309F4BAC10E
S11311F0853239F493FD859193FF81917F01853286
S113120029F4B60190E00E94160CE7CF912C212C12
S1131210312CFFE1F315D8F08B3279F038F48032B9
S113122079F08332A1F4232D20611DC08D3261F049
S1131230803369F4232D216016C0832D8260382EFB
S1131240E32DE4603E2E2AC0F32DF8601DC037FC68
S11312502DC020ED280F2A3040F08E32B9F436FC30
S113126081C1232D2064322E19C036FE06C08AE0C7
S1131270989E200D1124922E11C0EAE02E9E200D7E
S11312801124222EF32DF0623F2E08C08C3621F457
S1131290832D8068382E02C0883641F4F70193FD0F
S11312A0859193FF81917F018111B3CF982F9F7D09
S11312B09554933028F40C5F1F4F9FE399830DC01E
S11312C0833631F0833771F0833509F059C021C07A
S11312D0F801808189830E5F1F4F88248394912CA9
S11312E0530113C02801F2E04F0E511CF801A080F5
S11312F0B18036FE03C0692D70E002C06FEF7FEF4E
S1131300C5010E940B0C4C018201F32DFF773F2E87
S113131016C0280122E0420E511CF801A080B180C1
S113132036FE03C0692D70E002C06FEF7FEFC50188
S11313300E94F90B4C01F32DF0683F2E820133FC1F
S11313401BC0822D90E088169906B0F4B60180E2A5
S113135090E00E94160C2A94F4CFF50137FC859195
S113136037FE81915F01B60190E00E94160C2110B6
S11313702A9421E0821A91088114910471F7E8C03B
S1131380843611F0893641F5F80137FE07C06081D3
S11313907181828193810C5F1F4F08C060817181CC
S11313A0072E000C880B990B0E5F1F4FF32DFF7651
S11313B03F2E97FF09C090958095709561957F4F5A
S11313C08F4F9F4FF0683F2E2AE030E0A3010E9428
S11313D0520C882E861845C0853731F4232D2F7E74
S11313E0B22E2AE030E025C0932D997FB92E8F3696
S11313F0C1F018F4883579F0B5C0803719F0883712
S113140021F0B0C0E92FE061BE2EB4FE0DC0FB2D6B
S1131410F460BF2E09C034FE0AC0292F2660B22E04
S113142006C028E030E005C020E130E002C020E141
S113143032E0F801B7FE07C0608171818281938137
S11314400C5F1F4F06C06081718180E090E00E5FE9
S11314501F4FA3010E94520C882E8618FB2DFF7784
S11314603F2E36FE0DC0232D2E7FA22E891458F454
S113147034FE0BC032FC09C0832D8E7EA82E05C01D
S1131480B82CA32C03C0B82C01C0B92CA4FE0FC0E7
S1131490FE01E80DF11D8081803321F49A2D997E9F
S11314A0A92E09C0A2FE06C0B394B39404C08A2D29
S11314B0867809F0B394A3FC11C0A0FE06C0B21450
S11314C088F4280C922C9B180EC0B21460F4B60158
S11314D080E290E00E94160CB394F7CFB21418F493
S11314E02B1802C0982C212CA4FE10C0B60180E356
S11314F090E00E94160CA2FE17C0A1FC03C088E76E
S113150090E002C088E590E0B6010CC08A2D867890
S113151059F0A1FE02C08BE201C080E2A7FC8DE27B
S1131520B60190E00E94160C891438F4B60180E3E9
S113153090E00E94160C9A94F7CF8A94F301E80D78
S1131540F11D8081B60190E00E94160C8110F5CF48
S1131550222009F442CEB60180E290E00E94160CEB
S11315602A94F6CFF6018681978102C08FEF9FEF10
S11315702B96E2E10C94CC0C0F931F93CF93DF9343
S1131580869F8001879F100D969F100D1124C8011E
S11315900E94D80AEC01009729F0A80160E070E0ED
S11315A00E94040CCE01DF91CF911F910F910895F9
S11315B00F931F93CF93DF938230910510F482E051
S11315C090E0E091F301F091F40120E030E0A0E03C
S11315D0B0E0309719F1408151810281138148179D
S11315E05907C8F08417950769F4109731F01296DB
S11315F00C93129713961C9327C00093F301109336
S1131600F40122C02115310519F04217530718F4CB
S11316109A01BD01EF01DF01F801DBCF211531058E
S1131620F9F0281B390B2430310580F48A819B8121
S11316306115710521F0FB019383828304C09093AB
S1131640F4018093F301FE01329644C0FE01E20FDF
S1131650F31F8193919322503109398328833AC02F
S11316602091F1013091F201232B41F420910201E8
S1131670309103013093F2012093F1012091000194
S1131680309101012115310541F42DB73EB7409148
S1131690040150910501241B350BE091F101F091F7
S11316A0F201E217F307A0F42E1B3F0B28173907AA
S11316B078F0AC014E5F5F4F2417350748F04E0FAA
S11316C05F1F5093F2014093F1018193919302C003
S11316D0E0E0F0E0CF01DF91CF911F910F910895E9
S11316E0CF93DF93009709F481C0FC0132971382F2
S11316F01282A091F301B091F401109781F420813A
S11317003181820F931F2091F1013091F20128174A
S1131710390751F5F093F201E093F10167C0ED014F
S113172020E030E0CE17DF0740F44A815B819E0160
S113173041155105F1F0EA01F5CFD383C28340810D
S11317405181840F951FC817D90759F4888199814D
S1131750840F951F0296918380838A819B81938352
S113176082832115310529F4F093F401E093F30108
S11317703DC0E901FB83EA8349915991C40FD51F08
S1131780EC17FD0761F480819181840F951F029607
S1131790E90199838883828193819B838A83E0E032
S11317A0F0E012968D919C911397009719F0FD012A
S11317B0DC01F7CF8D919C9111979D012E5F3F4FD6
S11317C0820F931F2091F1013091F20128173907FC
S11317D069F4309729F41092F4011092F30102C0D5
S11317E013821282B093F201A093F101DF91CF91A1
S11317F00895FC010590615070400110D8F7809560
S113180090958E0F9F1F0895DC0101C06D93415088
S11318105040E0F70895FC016150704001900110C0
S1131820D8F7809590958E0F9F1F08950F931F935F
S1131830CF93DF93FB01238121FD03C08FEF9FEF43
S11318402CC022FF16C0468157812481358142175E
S1131850530744F4A081B1819D012F5F3F4F318331
S113186020838C93268137812F5F3F4F37832683D4
S113187014C08B01EC01FB010084F185E02D099576
S1131880892BE1F6D80116968D919C9117970196B4
S113189017969C938E931697CE01DF91CF911F914B
S11318A00F910895FA01AA27283051F1203181F1CE
S11318B0E8946F936E7F6E5F7F4F8F4F9F4FAF4F54
S11318C0B1E03ED0B4E03CD0670F781F891F9A1F67
S11318D0A11D680F791F8A1F911DA11D6A0F711D1B
S11318E0811D911DA11D20D009F468943F912AE027
S11318F0269F11243019305D3193DEF6CF0108950F
S1131900462F4770405D4193B3E00FD0C9F7F6CF3F
S1131910462F4F70405D4A3318F0495D31FD405207
S1131920419302D0A9F7EACFB4E0A695979587959D
S113193077956795BA95C9F700976105710508957C
S11319409B01AC010A2E0694579547953795279528
S1131950BA95C9F7620F731F841F951FA01D0895C0
S11319602F923F924F925F926F927F928F929F92AB
S1131970AF92BF92CF92DF92EF92FF920F931F9399
S1131980CF93DF93CDB7DEB7CA1BDB0B0FB6F8944A
S1131990DEBF0FBECDBF09942A88398848885F848A
S11319A06E847D848C849B84AA84B984C884DF80FB
S11319B0EE80FD800C811B81AA81B981CE0FD11DDF
S11319C00FB6F894DEBF0FBECDBFED010895F894B5
S10519D0FFCF43
S11319D20000F50120000014B101B701B901C201F0
S11319E2C70149643A2025642C20446174615F6C08
S11319F2656E6774683A202564200A0D0044617498
S1131A02612025643A2025640A0D006D656E7520F7
S1131A12706F732069733A090A0D004A6F797374FF
S1131A2269636B205820706F733A2025642C204A16
S1131A326F79737469636B205920706F733A202530
S1131A42642C204A6F79737469636B207265746EB7
S1131A52696E673A202564004A6F79737469636B0F
S1131A62205820706F733A2025642C204A6F7973B2
S1131A727469636B205920706F733A2025640A0DD0
S1131A82005061757365002000636F6E74696E7532
S1131A92650071756974004869676873636F72657C
S1091AA23A203532000079
S9030000FC
