:100000000C94B4010C94E3020C94D1010C94D10132
:100010000C94D1010C94D1010C94D1010C94D10118
:100020000C94D1010C94D1010C94D1010C94D10108
:100030000C94D1010C94D1010C94D1010C94D101F8
:100040000C94D1010C94D1010C94D1010C94D101E8
:100050000C94D1010C94D1010C94D1010C94D101D8
:100060000C94D1010C94D1010C94D1010C94D101C8
:10007000000000000000000000065F5F06000000B6
:100080000007070007070000147F7F147F7F14001C
:10009000242E6B6B3A120000466630180C66620024
:1000A000307A4F5D377A48000407030000000000F3
:1000B000001C3E63410000000041633E1C00000044
:1000C000082A3E1C1C3E2A0808083E3E080800007C
:1000D00000A0E06000000000080808080808000010
:1000E00000006060000000006030180C0603010092
:1000F0003E7F594D7F3E000042427F7F40400000DE
:10010000627359496F660000226349497F360000D7
:10011000181C16137F7F1000276745457D390000A6
:100120003C7E4B4979300000036371190F070000D2
:10013000367F49497F360000064F49693F1E00005F
:1001400000006C6C0000000000A0EC6C00000000DF
:10015000081C366341000000141414141414000029
:10016000004163361C080000020351590F060000CD
:100170003E7F415D5D1F1E007C7E13137E7C000070
:10018000417F7F49497F36001C3E63414163220025
:10019000417F7F41637F1C00417F7F495D41630058
:1001A000417F7F491D0103001C3E63415173720072
:1001B0007F7F08087F7F000000417F7F41000000B3
:1001C000307040417F3F0100417F7F081C77630012
:1001D000417F7F41406070007F7F060C067F7F007B
:1001E0007F7F060C187F7F001C3E6341633E1C002E
:1001F000417F7F49090F06001E3F21717F5E00008D
:10020000417F7F19396F460026674D597B320000C8
:1002100003417F7F410300007F7F40407F7F0000DC
:100220001F3F60603F1F00007F7F3018307F7F00DE
:1002300063771C081C776300074F78784F0700002E
:100240006773594D47637100007F7F414100000093
:100250000103060C183060000041417F7F00000060
:10026000080C0603060C0800808080808080808057
:100270000000030704000000207454543C78400040
:10028000413F7F44447C3800387C44446C28000063
:10029000307848493F7F4000387C54545C18000057
:1002A000487E7F490302000098BCA4A4F87C0400A7
:1002B000417F7F08047C780000447D7D4000000081
:1002C00040C484FD7D000000417F7F10386C4400F5
:1002D00000417F7F400000007C7C0C180C7C780083
:1002E0007C7C04047C780000387C44447C3800002A
:1002F00084FCF8A4243C1800183C24A4F8FC8400D6
:10030000447C78441C180000485C54547424000059
:1003100000043E7F442400003C7C40403C7C400084
:100320001C3C60603C1C00003C7C6030607C3C00FD
:10033000446C3810386C44009CBCA0A0FC7C0000CD
:100340004C64745C4C64000008083E774141000036
:1003500000000077770000004141773E0808000068
:10036000020301030203010011241FBECFEFD4E0FA
:10037000DEBFCDBF11E0A0E0B1E0E8E5FBE102C0E7
:1003800005900D92AE39B107D9F721E0AEE9B1E0A1
:1003900001C01D92AE3BB207E1F70E94ED060C943E
:1003A000AA0D0C9400000E944A030E94F7080895C9
:1003B0001092001080E009C0E82FF0E0909100104A
:1003C000E256FE4F908300008F5F8430A8F38EE9E1
:1003D00091E00895CF92DF92EF92FF920F931F93D7
:1003E000CF93DF93CDB7DEB72B970FB6F894DEBF70
:1003F0000FBECDBFC982DA82EB82FC820D831E83E1
:100400002F83388749875A876B87813071F018F0BE
:10041000823031F043C00F2EF1E3FF2EF02D09C0E2
:100420000F2EF1E5FF2EF02D04C00F2EF1E4FF2E6C
:10043000F02DD82E09811A81C80196958795969539
:100440008795969587956F2D0E94BC0761E06F0D8B
:10045000802F8295880F807E0E94BC07EB8064E02D
:100460006F0D8E2D8F700E94BC0700E010E00EC053
:100470006F2D600F6B5FE4E0F0E0EC0FFD1FE00F0D
:10048000F11F80810E94BC070F5F1F4F2E2D30E0AF
:10049000021713076CF38D2D0E94D2072B960FB60F
:1004A000F894DEBF0FBECDBFDF91CF911F910F91AA
:1004B000FF90EF90DF90CF9008950F931F93CF930D
:1004C000DF938C010E94ED07C82FD82FD27081FDD9
:1004D00002C080FF5CC082E00E946708C0FF04C0C9
:1004E00080E90E94900805C0DD2319F084E90E948C
:1004F00090080E948B08C82F0E948B082C2F30E098
:10050000220F331F220F331F220F331F8295869530
:100510008770282BF801318320830E948B080E946A
:100520008B080E948B08F80182831F928F93818130
:100530008F9380818F9380E191E09F938F930E94AE
:1005400088090F900F900F900F900F900F90C0E0C0
:10055000D0E017C00E948B08F801EC0FFD1F8383C9
:100560001F928F93DF93CF938BE291E09F938F93B2
:100570000E94880921960F900F900F900F900F9076
:100580000F90C830D10534F382E00E947908DF91E2
:10059000CF911F910F9108950E942A0881B38B7FFC
:1005A00081BB85B7826085BF85B78E7F85BF8BB7DE
:1005B00080648BBF7894089581E08093A2010895B0
:1005C0008091A20108951F920F920FB60F921124ED
:1005D0002F933F934F935F936F937F938F939F934B
:1005E000AF93BF93EF93FF93CF93DF93CDB7DEB776
:1005F0002C97DEBFCDBF41E06CE2CE010C960E948D
:10060000A3078C8580FF09C0CE0101960E945D0280
:1006100040E061E08CE20E94FE078C8581FF09C00A
:10062000CE0101960E945D0240E062E08CE20E94F1
:10063000FE078C8583FF05C040E068E08CE20E94E5
:10064000FE078C8584FF05C040E060E18CE20E94DB
:10065000FE078C8582FF05C040E064E08CE20E94CA
:10066000FE072C960FB6F894DEBF0FBECDBFDF910C
:10067000CF91FF91EF91BF91AF919F918F917F911A
:100680006F915F914F913F912F910F900FBE0F90FF
:100690001F90189581B3806181BB81E090E09093B9
:1006A0008100809380001092870010928600EBE812
:1006B000F0E0808182688083EAE8F0E080818961EF
:1006C0008083089528B32D7F28BB41E00E949508C0
:1006D000089528B3226028BB41E00E949508089540
:1006E000803420F486958695869508958FEF089539
:1006F000CF93DF931F92CDB7DEB70E947003806B5C
:10070000898361E070E0CE0101960E9462030F9040
:10071000DF91CF910895CF93DF93CDB7DEB7C05867
:10072000D1090FB6F894DEBF0FBECDBF0E9478038B
:1007300080E090E008C0E1E0F0E0EC0FFD1FE80F82
:10074000F91F1082019680389105ACF360E870E0E3
:10075000CE0101960E946903C058DF4F0FB6F8948E
:10076000DEBF0FBECDBFDF91CF910895CF9380E064
:1007700090E008C0E0910601F0910701E80FF91F31
:1007800010820196811524E09207A4F3C0E004C012
:100790008C2F0E948B03CF5FC830D0F3CF91089588
:1007A00088230CF48FEF08951F93CF93DF931F924C
:1007B000CDB7DEB70E94D003182F12951F708F702F
:1007C000898361E070E0CE0101960E9462031061AE
:1007D000198361E070E0CE0101960E9462030F90E0
:1007E000DF91CF911F910895CF93DF93CDB7DEB7FF
:1007F0002F970FB6F894DEBF0FBECDBF8EEA898368
:1008000061E070E0CE0101960E94620381EA8A8372
:1008100061E070E0CE0102960E94620388EC8B8357
:1008200061E070E0CE0103960E94620385ED8C8347
:1008300080E88D8362E070E0CE0104960E9462033E
:1008400081E88E838FEF8F8362E070E0CE010696A1
:100850000E94620389ED888781E2898762E070E007
:10086000CE0108960E94620380E28A8782E08B872D
:1008700062E070E0CE010A960E94620380EB8C87F2
:1008800061E070E0CE010C960E94620384EA8D87DD
:1008900061E070E0CE010D960E94620386EA8E87C9
:1008A00061E070E0CE010E960E9462038FEA8F87AE
:1008B00061E070E0CE010F960E94620380E00E942A
:1008C000D4032F960FB6F894DEBF0FBECDBFDF91D5
:1008D000CF910895CF93DF93EC0180E090E040C08A
:1008E000FE0101900020E9F73197DE01AE1BBF0B3E
:1008F000AA0FBB1FAA0FBB1F70E8679FA00DB11DF9
:100900001124A20FB31FFC01EE0FFF1FEE0FFF1FFC
:10091000EE0FFF1FAE0FBF1FA05CBF4FE09106019F
:10092000F0910701AE0FBF1FFE01E40FF51FE0813C
:10093000F0E0B097EE0FFF1FEE0FFF1FEE0FFF1F4F
:10094000E20FF31FE059FF4FE491EC932F5F3F4F0D
:1009500002C020E030E0283031050CF4C1CF019610
:10096000FE0101900020E9F73197EC1BFD0BAC0173
:100970008E179F0770F3DF91CF9108950F931F9308
:10098000CF93DF931F92CDB7DEB700E010E01BC01E
:10099000802F806B898361E070E0CE0101960E9418
:1009A00062032091060130910701C8019695982FA6
:1009B00088279795879560E870E0820F931F0E94C3
:1009C00069030F5F1F4F0830110514F30F90DF917B
:1009D000CF911F910F9108950E94F70880E090E059
:1009E00004C0FC01FC5E10820196811524E0920790
:1009F000C0F30895362F3770669566956695E82F93
:100A0000F0E0CF0120E8629F800D911D1124E0915C
:100A10000601F0910701E80FF91F208181E090E0C5
:100A200002C0880F991F3A95E2F7822B80830895C0
:100A300040E050E011C0E0910601F09107019A01F9
:100A400090E8899F200D311D1124E20FF31F908142
:100A5000909590834F5F5F4F4038510564F3089540
:100A6000BF92CF92DF92EF92FF920F931F93CF939B
:100A7000DF93B82E6A017B01C0E0D0E00BC0FE011D
:100A8000EE0FFF1FEC0DFD1D6C2F808191810E94E8
:100A90006A0421968701CE15DF058CF3C7E0D0E00C
:100AA00004C08C2F0E948B0321970C171D07CCF3D9
:100AB0008B2D0E941805DF91CF911F910F91FF9010
:100AC000EF90DF90CF90BF900895CF92DF92EF929A
:100AD000FF921F93CF93DF93EC016A017B010E9489
:100AE00032060E94A706182F882311F0188148C0EB
:100AF0009A818091AD01981709F440C08091AD01B1
:100B0000811116C088818983833018F081508883D1
:100B100005C08FEF8E0D888382E0898389810E94D2
:100B20001805B701A60188810E9430051A8226C0E7
:100B30008091AD018130E9F488818983482F50E0AC
:100B4000970121503109421753071CF48F5F8883A6
:100B500005C082E088838FEF8E0D898389810E9492
:100B60001805B701A60188810E94300581E08A83BB
:100B700005C08091AD01843009F48A830E94BE04CF
:100B8000812FDF91CF911F91FF90EF90DF90CF9059
:100B900008956817C0F4621710F4261B01C021E005
:100BA000482F50E0461B510934E6349FC001359F61
:100BB000900D1124622F70E00E94150965367105B1
:100BC00014F5CB010895861708F5461718F4962FEB
:100BD000941B01C091E070E0681B710984E6869F58
:100BE0009001879F300D1124692F70E0C9010E9488
:100BF00015096536710514F064E670E088279927B9
:100C0000861B970B089584E690E0089580E090E0BD
:100C100008959C01992324F422273327281B390B9C
:100C2000AB01772324F444275527461B570B421763
:100C3000530744F4853191056CF48C3E9F4F64F06A
:100C400084E00895653171054CF46C3E7F4F44F0AB
:100C500084E0089583E0089582E0089580E0089597
:100C600081E008950F931F93CF93DF930E94D801E3
:100C70008C01FC01808191812091B101291710F430
:100C80009093B101492F50E04F5F5F4F2091B00129
:100C900030E04217530714F49093B0012091B30150
:100CA000281710F48093B301482F50E04F5F5F4F37
:100CB0002091B20130E04217530714F48093B2013F
:100CC000C3EAD1E09C838D8368818C812E854D851C
:100CD0000E94C9059F838E836A818D8128894F85F3
:100CE0000E94C90599878887688579858E819F814B
:100CF0000E9409068A87F80182818C8783818B870D
:100D00000000DF91CF911F910F91089587B38E7FDF
:100D100087BB88B3816088BB0895CF93DF930E941F
:100D2000D801FC012081C3EAD1E030E03B832A8373
:100D3000818190E0998388830E94860690EF9E8748
:100D400086E48D87988B8F87DF91CF910895B09B34
:100D500002C080E0089581E00895CF92DF92EF9283
:100D6000FF920F931F93CF93DF93CDB7DEB72B97EF
:100D70000FB6F894DEBF0FBECDBF1A82198288E08D
:100D80008B8303EA11E0F80180818C830E94E002EA
:100D90008D83F80184818E83838589870E94A706CD
:100DA000C980DA80EB80FC800D811E812F8138851F
:100DB00049855A85682F80E00E94EA012B960FB67C
:100DC000F894DEBF0FBECDBFDF91CF911F910F9181
:100DD000FF90EF90DF90CF900895CF93DF93CDB742
:100DE000DEB7A7970FB6F894DEBF0FBECDBF8FE179
:100DF00090E00E9408090E945E080E94D3010E94B0
:100E00008D060E94CC0289E391E09F938F930E940C
:100E100088090E94F4030E94B6030E94EC0460E07B
:100E200080E00E94FA0460E08FE70E94FA046FE31A
:100E300080E00E94FA046FE38FE70E94FA0428E042
:100E4000E8E0F1E0CE010196DC0101900D922A95D7
:100E5000E1F726E431E03A8729872CE531E03C8749
:100E60002B8740E551E05E874D874EE551E0588B7A
:100E70004F873A8B298B28E631E03C8B2B8B23E77D
:100E800031E03E8B2D8B2BE731E0388F2F8B9A8F03
:100E9000898F84E090E09C8F8B8FCE0109969E8F86
:100EA0008D8F83E090E098A38F8FCE010F969AA349
:100EB00089A385E090E09CA38BA382E08DA3498D5C
:100EC0005A8D6B8D7C8D0E9430050E94BE040F9060
:100ED0000F908E01075E1F4F0E943206F80140817D
:100EE000518162817381CE0185960E9465059E01C4
:100EF000275E3F4F0217130789F48230D9F40E940E
:100F0000DC020E94B60349A15AA16BA17CA18DA16C
:100F10000E9430058E010F5D1F4F0CC0CE014D9613
:100F20000817190739F44D8D5E8D6F8D78A10896DD
:100F30000E9465050E94AD068FEF97E10197F1F7DA
:100F400000C00000C9CF0F931F93CF93DF938C0194
:100F5000D62FC42F82E00E94670883E00E94900889
:100F60002C2F30E0A80162E08D2F0E94C308DF9192
:100F7000CF911F910F910895CF93DF93C82FD62F54
:100F800082E00E94670882E00E9490088D2F0E94F4
:100F900090088C2F0E94900882E00E947908DF91CF
:100FA000CF910895CF93813061F028F0823029F0FD
:100FB000833029F010C0C1E805C0C4E803C0C7E809
:100FC00001C0C2E882E00E9467088C2F0E9490084E
:100FD00082E00E947908CF910895CF9382E00E9429
:100FE000670880EA0E94900880E00E949008C82F5D
:100FF00082E00E9479088C2FCF9108951F93CF93A0
:10100000DF93182FD62FC42F82E00E94670885E057
:101010000E949008812F0E9490088D2F0E949008B6
:101020008C2F0E94900882E00E947908DF91CF9176
:101030001F91089582E00E94670880EC0E9490084A
:1010400082E00E9479088FEF9FE20197F1F700C0DC
:10105000000008950E941A0840E860EE8FE00E94A8
:10106000FE078FEF9FE20197F1F700C0000040E616
:1010700060E680E60E94FE0740E660E680E70E94A8
:10108000FE074FEF6FEF8BE20E94FE076AE287E0F8
:101090000E94BC0769E282E90E94BC0768E282E024
:1010A0000E94BC0740E060EE8FE00E94FE078FEFD9
:1010B0009FE20197F1F700C0000008958DB18165AE
:1010C0008DB98EEB87BB88B38E6188BB0895811183
:1010D00004C088B38F7E88BB0895813021F488B323
:1010E000877F88BB0895823019F488B38B7F88BBD3
:1010F0000895811104C088B3806188BB0895813050
:1011000021F488B3886088BB0895823019F488B3CD
:10111000846088BB08951FB8779BFECF8FB1089578
:101120008FB9779BFECF8FB10895EF92FF920F9307
:101130001F93CF93DF937C018B01D42F842F0E94C8
:101140006708C0E011C0F701EC0FF11D80810E941B
:101150009008C11104C082E58A95F1F704C088E0C7
:101160008A95F1F70000CF5F8C2F90E080179107F0
:1011700054F38D2F0E947908DF91CF911F910F9129
:10118000FF90EF900895CF92DF92EF92FF920F932E
:101190001F93CF93DF93C82F062F6A017901862F03
:1011A0000E9467088C2F0E94900882E58A95F1F7CB
:1011B00010E00CC0E601C80FD91F80E00E94900823
:1011C000888388E08A95F1F700001F5F812F90E007
:1011D0008E159F0578F3802F0E947908DF91CF91BB
:1011E0001F910F91FF90EF90DF90CF90089585B7FA
:1011F000806885BF80E280BF08955D9BFECF8CB97B
:1012000080E090E008955F9BFECF8CB190E0089560
:1012100090BD89B988E18AB98EE880BD63E079E044
:101220008DEF98E00E943D09089597FB072E16F474
:10123000009407D077FD09D00E94290907FC05D04A
:101240003EF4909581959F4F0895709561957F4FDD
:101250000895AA1BBB1B51E107C0AA1FBB1FA617FD
:10126000B70710F0A61BB70B881F991F5A95A9F74F
:1012700080959095BC01CD0108950F931F93CF9356
:10128000DF93009731F46115710519F480E090E067
:101290003AC08B01EC016EE070E081E090E00E94CA
:1012A0007F0BFC01892B91F380E8838301151105E5
:1012B00071F01387028781E883838091B401909154
:1012C000B501892B21F4F093B501E093B401209787
:1012D000C9F0D187C0878381826083838091B60102
:1012E0009091B701892B71F4F093B701E093B601A7
:1012F0008091B8019091B901892B21F4F093B90143
:10130000E093B801CF01DF91CF911F910F91089524
:10131000A0E0B0E0EEE8F9E00C94830DAE014B5F85
:101320005F4FFA0161917191AF018091B601909187
:10133000B7010E949E09E2E00C949F0DABE0B0E083
:10134000E4EAF9E00C94730D6C017B018A01FC0165
:1013500017821682838181FFCCC1CE0101963C01A8
:10136000F6019381F70193FD859193FF81917F01B0
:10137000882309F4BAC1853239F493FD859193FF2E
:1013800081917F01853229F4B60190E00E94D90C49
:10139000E7CF912C212C312CFFE1F315D8F08B32C3
:1013A00079F038F4803279F08332A1F4232D206172
:1013B0001DC08D3261F0803369F4232D216016C089
:1013C000832D8260382EE32DE4603E2E2AC0F32D5B
:1013D000F8601DC037FC2DC020ED280F2A3040F0EA
:1013E0008E32B9F436FC81C1232D2064322E19C00F
:1013F00036FE06C08AE0989E200D1124922E11C060
:10140000EAE02E9E200D1124222EF32DF0623F2EB5
:1014100008C08C3621F4832D8068382E02C08836AF
:1014200041F4F70193FD859193FF81917F01811133
:10143000B3CF982F9F7D9554933028F40C5F1F4FA6
:101440009FE399830DC0833631F0833771F0833584
:1014500009F059C021C0F801808189830E5F1F4FB8
:1014600088248394912C530113C02801F2E04F0E7D
:10147000511CF801A080B18036FE03C0692D70E0D8
:1014800002C06FEF7FEFC5010E94CE0C4C018201BC
:10149000F32DFF773F2E16C0280122E0420E511C8B
:1014A000F801A080B18036FE03C0692D70E002C053
:1014B0006FEF7FEFC5010E94BC0C4C01F32DF0686B
:1014C0003F2E820133FC1BC0822D90E088169906C6
:1014D000B0F4B60180E290E00E94D90C2A94F4CFD7
:1014E000F50137FC859137FE81915F01B60190E0EF
:1014F0000E94D90C21102A9421E0821A91088114AB
:10150000910471F7E8C0843611F0893641F5F8018D
:1015100037FE07C060817181828193810C5F1F4F0C
:1015200008C060817181072E000C880B990B0E5F3B
:101530001F4FF32DFF763F2E97FF09C090958095A2
:10154000709561957F4F8F4F9F4FF0683F2E2AE037
:1015500030E0A3010E94150D882E861845C08537FE
:1015600031F4232D2F7EB22E2AE030E025C0932DBA
:10157000997FB92E8F36C1F018F4883579F0B5C04F
:10158000803719F0883721F0B0C0E92FE061BE2E16
:10159000B4FE0DC0FB2DF460BF2E09C034FE0AC09E
:1015A000292F2660B22E06C028E030E005C020E1D9
:1015B00030E002C020E132E0F801B7FE07C06081F0
:1015C0007181828193810C5F1F4F06C060817181A0
:1015D00080E090E00E5F1F4FA3010E94150D882E42
:1015E0008618FB2DFF773F2E36FE0DC0232D2E7F54
:1015F000A22E891458F434FE0BC032FC09C0832D8E
:101600008E7EA82E05C0B82CA32C03C0B82C01C018
:10161000B92CA4FE0FC0FE01E80DF11D80818033BE
:1016200021F49A2D997EA92E09C0A2FE06C0B3947A
:10163000B39404C08A2D867809F0B394A3FC11C03A
:10164000A0FE06C0B21488F4280C922C9B180EC081
:10165000B21460F4B60180E290E00E94D90CB39419
:10166000F7CFB21418F42B1802C0982C212CA4FE2A
:1016700010C0B60180E390E00E94D90CA2FE17C012
:10168000A1FC03C088E790E002C088E590E0B601C5
:101690000CC08A2D867859F0A1FE02C08BE201C0F1
:1016A00080E2A7FC8DE2B60190E00E94D90C89147B
:1016B00038F4B60180E390E00E94D90C9A94F7CFF9
:1016C0008A94F301E80DF11D8081B60190E00E943B
:1016D000D90C8110F5CF222009F442CEB60180E268
:1016E00090E00E94D90C2A94F6CFF601868197816A
:1016F00002C08FEF9FEF2B96E2E10C948F0D0F93BA
:101700001F93CF93DF93869F8001879F100D969F35
:10171000100D1124C8010E949B0BEC01009729F0C9
:10172000A80160E070E00E94C70CCE01DF91CF916C
:101730001F910F9108950F931F93CF93DF938230E2
:10174000910510F482E090E0E091BC01F091BD01C0
:1017500020E030E0A0E0B0E0309719F14081518105
:101760000281138148175907C8F08417950769F457
:10177000109731F012960C93129713961C9327C072
:101780000093BC011093BD0122C02115310519F051
:101790004217530718F49A01BD01EF01DF01F80168
:1017A000DBCF21153105F9F0281B390B2430310529
:1017B00080F48A819B816115710521F0FB0193837F
:1017C000828304C09093BD018093BC01FE013296D8
:1017D00044C0FE01E20FF31F81939193225031091F
:1017E000398328833AC02091BA013091BB01232B61
:1017F00041F420910201309103013093BB01209309
:10180000BA0120910001309101012115310541F407
:101810002DB73EB74091040150910501241B350BB3
:10182000E091BA01F091BB01E217F307A0F42E1B7F
:101830003F0B2817390778F0AC014E5F5F4F241734
:10184000350748F04E0F5F1F5093BB014093BA011C
:101850008193919302C0E0E0F0E0CF01DF91CF915E
:101860001F910F910895CF93DF93009709F481C0E2
:10187000FC01329713821282A091BC01B091BD018C
:10188000109781F420813181820F931F2091BA013A
:101890003091BB012817390751F5F093BB01E09354
:1018A000BA0167C0ED0120E030E0CE17DF0740F459
:1018B0004A815B819E0141155105F1F0EA01F5CFA6
:1018C000D383C28340815181840F951FC817D907E4
:1018D00059F488819981840F951F029691838083A2
:1018E0008A819B81938382832115310529F4F093AA
:1018F000BD01E093BC013DC0E901FB83EA8349914E
:101900005991C40FD51FEC17FD0761F480819181B7
:10191000840F951F0296E9019983888382819381C0
:101920009B838A83E0E0F0E012968D919C9113975F
:10193000009719F0FD01DC01F7CF8D919C91119773
:101940009D012E5F3F4F820F931F2091BA0130916E
:10195000BB012817390769F4309729F41092BD01AB
:101960001092BC0102C013821282B093BB01A093FB
:10197000BA01DF91CF910895FC010590615070404C
:101980000110D8F7809590958E0F9F1F0895DC0168
:1019900001C06D9341505040E0F70895FC01615043
:1019A000704001900110D8F7809590958E0F9F1F81
:1019B00008950F931F93CF93DF93FB01238121FDA4
:1019C00003C08FEF9FEF2CC022FF16C046815781C6
:1019D000248135814217530744F4A081B1819D01D0
:1019E0002F5F3F4F318320838C93268137812F5F78
:1019F0003F4F3783268314C08B01EC01FB01008429
:101A0000F185E02D0995892BE1F6D80116968D9187
:101A10009C911797019617969C938E931697CE01DB
:101A2000DF91CF911F910F910895FA01AA272830D5
:101A300051F1203181F1E8946F936E7F6E5F7F4F9B
:101A40008F4F9F4FAF4FB1E03ED0B4E03CD0670F17
:101A5000781F891F9A1FA11D680F791F8A1F911D6A
:101A6000A11D6A0F711D811D911DA11D20D009F4BA
:101A700068943F912AE0269F11243019305D3193FC
:101A8000DEF6CF010895462F4770405D4193B3E0E5
:101A90000FD0C9F7F6CF462F4F70405D4A3318F08C
:101AA000495D31FD4052419302D0A9F7EACFB4E03D
:101AB000A6959795879577956795BA95C9F70097F5
:101AC0006105710508959B01AC010A2E0694579596
:101AD000479537952795BA95C9F7620F731F841FED
:101AE000951FA01D08952F923F924F925F926F9283
:101AF0007F928F929F92AF92BF92CF92DF92EF929E
:101B0000FF920F931F93CF93DF93CDB7DEB7CA1B1E
:101B1000DB0B0FB6F894DEBF0FBECDBF09942A8849
:101B2000398848885F846E847D848C849B84AA84F1
:101B3000B984C884DF80EE80FD800C811B81AA817E
:101B4000B981CE0FD11D0FB6F894DEBF0FBECDBF49
:081B5000ED010895F894FFCFA8
:101B58000000BE012000001480015C01880193018F
:101B680049643A2025642C20446174615F6C656E79
:101B78006774683A202564200A0D00446174612066
:101B880025643A2025640A0D0052657374617274E5
:101B98006564090A0D00476F6F64206C75636B00FC
:101BA800506F696E7473206C6566743A20004761E3
:101BB8006D65204F76657200596F75722073636F7B
:101BC80072650052657374617274005175697400AE
:101BD80057656C636F6D650073746172742067611B
:0E1BE8006D65006869676873636F72657300EE
:00000001FF
