S00F00004279676765726E2E7372656347
S11300000C9438000C9455000C9455000C94550035
S11300100C9455000C9455000C9455000C94550008
S11300200C9455000C9455000C9455000C945500F8
S11300300C9455000C9455000C9455000C945500E8
S11300400C9455000C9455000C9455000C945500D8
S11300500C9455000C9455000C9455000C945500C8
S11300600C9455000C9455000C9455000C945500B8
S113007011241FBECFEFD4E0DEBFCDBF11E0A0E05E
S1130080B1E0E6E0FCE002C005900D92A431B107B6
S1130090D9F721E0A4E1B1E001C01D92AF31B2076C
S11300A0E1F70E9410010C9401060C9400008DB13C
S11300B081658DB98EEB87BB88B38C6188BB08954D
S11300C08EB1809314018FB180931401089561114E
S11300D009C098B39F7E98BB8FB9779BFECF0E94CF
S11300E060000895613041F498B3977F98BB8FB94D
S11300F0779BFECF0E9460000895811104C088B3ED
S11301008F7E88BB0895813019F488B3877F88BBBC
S11301100895811104C088B3806188BB089581303B
S113012019F488B3886088BB0895EF92FF920F9307
S11301301F93CF93DF937C018B01D42FC0E012C0B7
S1130140F701EC0FF11D80816D2F0E946700C11132
S113015004C082E58A95F1F704C088E08A95F1F736
S11301600000CF5F8C2F90E0801791074CF38D2F08
S11301700E948900DF91CF911F910F91FF90EF9022
S113018008958FB9779BFECF8FB108950E94C10067
S1130190089581E00E94C1000895CF92DF92EF920A
S11301A0FF920F931F93CF93DF936C017B01C0E009
S11301B0D0E00CC086010C0F1D1F0E94C900F8017D
S11301C08083F8E0FA95F1F700002196CE15DF055B
S11301D088F3DF91CF911F910F91FF90EF90DF9003
S11301E0CF900895EF92FF920F931F93CF93DF93D5
S11301F0D82FC62F8A017901862F0E947D008D2F6A
S11302000E94C600B701C8010E94CD008C2F0E9435
S11302108900DF91CF911F910F91FF90EF90089586
S1130220CF93DF93CDB7DEB7A6970FB6F894DEBFB2
S11302300FBECDBF8FE190E00E9487010E9457005E
S113024085E0898384E08A831B8240E063E070E078
S1130250CE0101960E94950023E230E0AE014C5F8E
S11302605F4F60E087E00E94F20086E091E09F9398
S11302708F930E94DF010F900F9000E010E015C0F3
S1130280E4E0F0E0EC0FFD1FE00FF11F80811F920E
S11302908F9389E091E09F938F930E94DF010F5F1A
S11302A01F4F0F900F900F900F900331110544F3DF
S11302B086E091E09F938F930E94DF010F900F904F
S11302C003E110E015C0E4E0F0E0EC0FFD1FE00FE7
S11302D0F11F80811F928F938EE091E09F938F9303
S11302E00E94DF010F5F1F4F0F900F900F900F9030
S11302F00332110544F3FFCF5D9BFECF8CB980E040
S113030090E008955F9BFECF8CB190E0089590BD7E
S113031089B988E18AB98EE880BD62E871E08CE72A
S113032091E00E94940108950F931F93CF93DF935C
S1130330009731F46115710519F480E090E03AC03A
S11303408B01EC016EE070E081E090E00E94D60346
S1130350FC01892B91F380E883830115110571F069
S11303601387028781E88383809115019091160198
S1130370892B21F4F0931601E09315012097C9F01D
S1130380D187C08783818260838380911701909194
S11303901801892B71F4F0931801E09317018091EF
S11303A0190190911A01892B21F4F0931A01E09319
S11303B01901CF01DF91CF911F910F910895A0E012
S11303C0B0E0E5EEF1E00C94DA05AE014B5F5F4F6F
S11303D0FA0161917191AF01809117019091180117
S11303E00E94F501E2E00C94F605ABE0B0E0EBEF1F
S11303F0F1E00C94CA056C017B018A01FC011782AF
S11304001682838181FFCCC1CE0101963C01F601A5
S11304109381F70193FD859193FF81917F01882357
S113042009F4BAC1853239F493FD859193FF819122
S11304307F01853229F4B60190E00E943005E7CFB0
S1130440912C212C312CFFE1F315D8F08B3279F06B
S113045038F4803279F08332A1F4232D20611DC059
S11304608D3261F0803369F4232D216016C0832D11
S11304708260382EE32DE4603E2E2AC0F32DF8600E
S11304801DC037FC2DC020ED280F2A3040F08E32DD
S1130490B9F436FC81C1232D2064322E19C036FEF6
S11304A006C08AE0989E200D1124922E11C0EAE025
S11304B02E9E200D1124222EF32DF0623F2E08C013
S11304C08C3621F4832D8068382E02C0883641F49E
S11304D0F70193FD859193FF81917F018111B3CF42
S11304E0982F9F7D9554933028F40C5F1F4F9FE302
S11304F099830DC0833631F0833771F0833509F069
S113050059C021C0F801808189830E5F1F4F882460
S11305108394912C530113C02801F2E04F0E511C17
S1130520F801A080B18036FE03C0692D70E002C0DE
S11305306FEF7FEFC5010E9425054C018201F32D69
S1130540FF773F2E16C0280122E0420E511CF8010D
S1130550A080B18036FE03C0692D70E002C06FEF49
S11305607FEFC5010E9413054C01F32DF0683F2E67
S1130570820133FC1BC0822D90E088169906B0F4EA
S1130580B60180E290E00E9430052A94F4CFF50190
S113059037FC859137FE81915F01B60190E00E949E
S11305A0300521102A9421E0821A910881149104C3
S11305B071F7E8C0843611F0893641F5F80137FE49
S11305C007C060817181828193810C5F1F4F08C0D5
S11305D060817181072E000C880B990B0E5F1F4FF1
S11305E0F32DFF763F2E97FF09C090958095709567
S11305F061957F4F8F4F9F4FF0683F2E2AE030E088
S1130600A3010E946C05882E861845C0853731F4F5
S1130610232D2F7EB22E2AE030E025C0932D997F22
S1130620B92E8F36C1F018F4883579F0B5C080370B
S113063019F0883721F0B0C0E92FE061BE2EB4FE76
S11306400DC0FB2DF460BF2E09C034FE0AC0292F53
S11306502660B22E06C028E030E005C020E130E07C
S113066002C020E132E0F801B7FE07C06081718169
S1130670828193810C5F1F4F06C06081718180E08D
S113068090E00E5F1F4FA3010E946C05882E861810
S1130690FB2DFF773F2E36FE0DC0232D2E7FA22E7D
S11306A0891458F434FE0BC032FC09C0832D8E7EAD
S11306B0A82E05C0B82CA32C03C0B82C01C0B92C9B
S11306C0A4FE0FC0FE01E80DF11D8081803321F4EA
S11306D09A2D997EA92E09C0A2FE06C0B394B394A4
S11306E004C08A2D867809F0B394A3FC11C0A0FE3F
S11306F006C0B21488F4280C922C9B180EC0B214B5
S113070060F4B60180E290E00E943005B394F7CF24
S1130710B21418F42B1802C0982C212CA4FE10C07B
S1130720B60180E390E00E943005A2FE17C0A1FC50
S113073003C088E790E002C088E590E0B6010CC0F1
S11307408A2D867859F0A1FE02C08BE201C080E2B6
S1130750A7FC8DE2B60190E00E943005891438F4BC
S1130760B60180E390E00E9430059A94F7CF8A9412
S1130770F301E80DF11D8081B60190E00E9430057F
S11307808110F5CF222009F442CEB60180E290E038
S11307900E9430052A94F6CFF6018681978102C023
S11307A08FEF9FEF2B96E2E10C94E6050F931F93D6
S11307B0CF93DF93869F8001879F100D969F100D26
S11307C01124C8010E94F203EC01009729F0A8014A
S11307D060E070E00E941E05CE01DF91CF911F9171
S11307E00F9108950F931F93CF93DF938230910558
S11307F010F482E090E0E0911D01F0911E0120E0F0
S113080030E0A0E0B0E0309719F1408151810281DD
S1130810138148175907C8F08417950769F410978E
S113082031F012960C93129713961C9327C00093E1
S11308301D0110931E0122C02115310519F0421724
S1130840530718F49A01BD01EF01DF01F801DBCF72
S113085021153105F9F0281B390B2430310580F4BA
S11308608A819B816115710521F0FB019383828349
S113087004C090931E0180931D01FE01329644C072
S1130880FE01E20FF31F81939193225031093983C2
S113089028833AC020911B0130911C01232B41F481
S11308A0209102013091030130931C0120931B011C
S11308B020910001309101012115310541F42DB73A
S11308C03EB74091040150910501241B350BE09182
S11308D01B01F0911C01E217F307A0F42E1B3F0B40
S11308E02817390778F0AC014E5F5F4F241735079E
S11308F048F04E0F5F1F50931C0140931B018193DE
S1130900919302C0E0E0F0E0CF01DF91CF911F911D
S11309100F910895CF93DF93009709F481C0FC01F0
S1130920329713821282A0911D01B0911E0110977B
S113093081F420813181820F931F20911B0130911A
S11309401C012817390751F5F0931C01E0931B0192
S113095067C0ED0120E030E0CE17DF0740F44A81A4
S11309605B819E0141155105F1F0EA01F5CFD38376
S1130970C28340815181840F951FC817D90759F448
S113098088819981840F951F0296918380838A813F
S11309909B81938382832115310529F4F0931E01F1
S11309A0E0931D013DC0E901FB83EA83499159911C
S11309B0C40FD51FEC17FD0761F480819181840F6A
S11309C0951F0296E90199838883828193819B8391
S11309D08A83E0E0F0E012968D919C911397009742
S11309E019F0FD01DC01F7CF8D919C9111979D01C8
S11309F02E5F3F4F820F931F20911B0130911C01EA
S1130A002817390769F4309729F410921E011092BF
S1130A101D0102C013821282B0931C01A0931B011A
S1130A20DF91CF910895FC01059061507040011051
S1130A30D8F7809590958E0F9F1F0895DC0101C013
S1130A406D9341505040E0F70895FC0161507040AF
S1130A5001900110D8F7809590958E0F9F1F0895EF
S1130A600F931F93CF93DF93FB01238121FD03C0D9
S1130A708FEF9FEF2CC022FF16C04681578124813F
S1130A8035814217530744F4A081B1819D012F5F42
S1130A903F4F318320838C93268137812F5F3F4FD3
S1130AA03783268314C08B01EC01FB010084F1859C
S1130AB0E02D0995892BE1F6D80116968D919C912C
S1130AC01797019617969C938E931697CE01DF91F4
S1130AD0CF911F910F910895FA01AA27283051F15F
S1130AE0203181F1E8946F936E7F6E5F7F4F8F4F5B
S1130AF09F4FAF4FB1E03ED0B4E03CD0670F781FBA
S1130B00891F9A1FA11D680F791F8A1F911DA11D9E
S1130B106A0F711D811D911DA11D20D009F46894D7
S1130B203F912AE0269F11243019305D3193DEF67F
S1130B30CF010895462F4770405D4193B3E00FD035
S1130B40C9F7F6CF462F4F70405D4A3318F0495D20
S1130B5031FD4052419302D0A9F7EACFB4E0A69503
S1130B609795879577956795BA95C9F70097610525
S1130B70710508959B01AC010A2E0694579547957B
S1130B8037952795BA95C9F7620F731F841F951F70
S1130B90A01D08952F923F924F925F926F927F9281
S1130BA08F929F92AF92BF92CF92DF92EF92FF9279
S1130BB00F931F93CF93DF93CDB7DEB7CA1BDB0B25
S1130BC00FB6F894DEBF0FBECDBF09942A883988CA
S1130BD048885F846E847D848C849B84AA84B984D1
S1130BE0C884DF80EE80FD800C811B81AA81B981DD
S1130BF0CE0FD11D0FB6F894DEBF0FBECDBFED01F1
S1090C000895F894FFCFF3
S1130C0600001F0120000A0D0025632C2000256426
S1070C162C2000008A
S9030000FC
