:100000000C94B4010C94B5070C94D1010C94D1015B
:100010000C94D1010C94D1010C94D1010C94D10118
:100020000C94D1010C94D1010C94D1010C94D10108
:100030000C94D1010C94D1010C94D1010C94D101F8
:100040000C94D1010C94D1010C94D1010C94D101E8
:100050000C94D1010C94D1010C94D1010C94D101D8
:100060000C94D1010C94D1010C94D1010C94D101C8
:10007000000000000000000000065F5F06000000B6
:100080000007070007070000147F7F147F7F14001C
:10009000242E6B6B3A120000466630180C66620024
:1000A000307A4F5D377A48000407030000000000F3
:1000B000001C3E63410000000041633E1C00000044
:1000C000082A3E1C1C3E2A0808083E3E080800007C
:1000D00000A0E06000000000080808080808000010
:1000E00000006060000000006030180C0603010092
:1000F0003E7F594D7F3E000042427F7F40400000DE
:10010000627359496F660000226349497F360000D7
:10011000181C16137F7F1000276745457D390000A6
:100120003C7E4B4979300000036371190F070000D2
:10013000367F49497F360000064F49693F1E00005F
:1001400000006C6C0000000000A0EC6C00000000DF
:10015000081C366341000000141414141414000029
:10016000004163361C080000020351590F060000CD
:100170003E7F415D5D1F1E007C7E13137E7C000070
:10018000417F7F49497F36001C3E63414163220025
:10019000417F7F41637F1C00417F7F495D41630058
:1001A000417F7F491D0103001C3E63415173720072
:1001B0007F7F08087F7F000000417F7F41000000B3
:1001C000307040417F3F0100417F7F081C77630012
:1001D000417F7F41406070007F7F060C067F7F007B
:1001E0007F7F060C187F7F001C3E6341633E1C002E
:1001F000417F7F49090F06001E3F21717F5E00008D
:10020000417F7F19396F460026674D597B320000C8
:1002100003417F7F410300007F7F40407F7F0000DC
:100220001F3F60603F1F00007F7F3018307F7F00DE
:1002300063771C081C776300074F78784F0700002E
:100240006773594D47637100007F7F414100000093
:100250000103060C183060000041417F7F00000060
:10026000080C0603060C0800808080808080808057
:100270000000030704000000207454543C78400040
:10028000413F7F44447C3800387C44446C28000063
:10029000307848493F7F4000387C54545C18000057
:1002A000487E7F490302000098BCA4A4F87C0400A7
:1002B000417F7F08047C780000447D7D4000000081
:1002C00040C484FD7D000000417F7F10386C4400F5
:1002D00000417F7F400000007C7C0C180C7C780083
:1002E0007C7C04047C780000387C44447C3800002A
:1002F00084FCF8A4243C1800183C24A4F8FC8400D6
:10030000447C78441C180000485C54547424000059
:1003100000043E7F442400003C7C40403C7C400084
:100320001C3C60603C1C00003C7C6030607C3C00FD
:10033000446C3810386C44009CBCA0A0FC7C0000CD
:100340004C64745C4C64000008083E774141000036
:1003500000000077770000004141773E0808000068
:10036000020301030203010011241FBECFEFD4E0FA
:10037000DEBFCDBF11E0A0E0B1E0E0E8FCE102C0EB
:1003800005900D92A039B107D9F721E0A0E9B1E0BD
:1003900001C01D92A13BB207E1F70E942B060C940D
:1003A0003E0E0C9400000E9474020E946909089598
:1003B0001092001080E009C0E82FF0E0909100104A
:1003C000E057FE4F908300008F5F8430A8F380E9F0
:1003D00091E00895CF92DF92EF92FF920F931F93D7
:1003E000CF93DF93CDB7DEB72B970FB6F894DEBF70
:1003F0000FBECDBFC982DA82EB82FC820D831E83E1
:100400002F83388749875A876B87813071F018F0BE
:10041000823031F043C00F2EF1E3FF2EF02D09C0E2
:100420000F2EF1E5FF2EF02D04C00F2EF1E4FF2E6C
:10043000F02DD82E09811A81C80196958795969539
:100440008795969587956F2D0E94440861E06F0D02
:10045000802F8295880F807E0E944408EB8064E0A4
:100460006F0D8E2D8F700E94440800E010E00EC0CA
:100470006F2D600F6B5FE4E0F0E0EC0FFD1FE00F0D
:10048000F11F80810E9444080F5F1F4F2E2D30E026
:10049000021713076CF38D2D0E945A082B960FB686
:1004A000F894DEBF0FBECDBFDF91CF911F910F91AA
:1004B000FF90EF90DF90CF9008950E94A10881B344
:1004C0008B7F81BB85B7826085BF85B78E7F85BFF7
:1004D0008BB780648BBF7894089581E080939401FA
:1004E000089580919401089581B3806181BB81E07A
:1004F00090E090938100809380001092870010928A
:100500008600EBE8F0E0808182688083EAE8F0E032
:10051000808189618083089528B32D7F28BB41E0C5
:100520000E94070908959C01F89498B3926098BBC3
:1005300041E0C9010E94070978940895803420F4AD
:1005400086958695869508958FEF0895CF93DF93CE
:100550001F92CDB7DEB70E949E02806B898361E057
:1005600070E0CE0101960E948C020F90DF91CF9136
:100570000895CF93DF93CDB7DEB7C058D1090FB63A
:10058000F894DEBF0FBECDBF0E94A60280E090E0CF
:1005900008C0E1E0F0E0EC0FFD1FE80FF91F10824A
:1005A000019680389105ACF360E870E0CE010196C9
:1005B0000E949302C058DF4F0FB6F894DEBF0FBE03
:1005C000CDBFDF91CF910895CF9380E090E008C038
:1005D000E0910601F0910701E80FF91F10820196E2
:1005E000811524E09207A4F3C0E004C08C2F0E9480
:1005F000B902CF5FC830D0F3CF91089588230CF4AF
:100600008FEF08951F93CF93DF931F92CDB7DEB77F
:100610000E94FE02182F12951F708F70898361E06F
:1006200070E0CE0101960E948C021061198361E096
:1006300070E0CE0101960E948C020F90DF91CF9165
:100640001F910895CF93DF93CDB7DEB72F970FB6E5
:10065000F894DEBF0FBECDBF8EEA898361E070E003
:10066000CE0101960E948C0281EA8A8361E070E0EB
:10067000CE0102960E948C0288EC8B8361E070E0D0
:10068000CE0103960E948C0285ED8C8380E88D83D9
:1006900062E070E0CE0104960E948C0281E88E83B5
:1006A0008FEF8F8362E070E0CE0106960E948C028D
:1006B00089ED888781E2898762E070E0CE01089643
:1006C0000E948C0280E28A8782E08B8762E070E081
:1006D000CE010A960E948C0280EB8C8761E070E06C
:1006E000CE010C960E948C0284EA8D8761E070E056
:1006F000CE010D960E948C0286EA8E8761E070E042
:10070000CE010E960E948C028FEA8F8761E070E026
:10071000CE010F960E948C0280E00E9402032F9669
:100720000FB6F894DEBF0FBECDBFDF91CF91089515
:10073000CF93DF93EC0180E090E040C0FE01019098
:100740000020E9F73197DE01AE1BBF0BAA0FBB1FDC
:10075000AA0FBB1F70E8679FA00DB11D1124A20F47
:10076000B31FFC01EE0FFF1FEE0FFF1FEE0FFF1F69
:10077000AE0FBF1FA05CBF4FE0910601F0910701D3
:10078000AE0FBF1FFE01E40FF51FE081F0E0B09750
:10079000EE0FFF1FEE0FFF1FEE0FFF1FE20FF31F05
:1007A000E059FF4FE491EC932F5F3F4F02C020E0F0
:1007B00030E0283031050CF4C1CF0196FE010190E4
:1007C0000020E9F73197EC1BFD0BAC018E179F075A
:1007D00070F3DF91CF9108950F931F93CF93DF9321
:1007E0001F92CDB7DEB700E010E01BC0802F806BFA
:1007F000898361E070E0CE0101960E948C02209115
:10080000060130910701C8019695982F8827979582
:10081000879560E870E0820F931F0E9493020F5F3C
:100820001F4F0830110514F30F90DF91CF911F91E6
:100830000F9108950E94690980E090E004C0FC01D6
:10084000FC5E10820196811524E09207C0F30895A2
:10085000362F3770669566956695E82FF0E0CF01E4
:1008600020E8629F800D911D1124E0910601F09116
:100870000701E80FF91F208181E090E002C0880F96
:10088000991F3A95E2F7822B8083089540E050E06B
:1008900011C0E0910601F09107019A0190E8899F4B
:1008A000200D311D1124E20FF31F9081909590834C
:1008B0004F5F5F4F4038510564F30895BF92CF9268
:1008C000DF92EF92FF920F931F93CF93DF93B82E97
:1008D0006A017B01C0E0D0E00BC0FE01EE0FFF1FFC
:1008E000EC0DFD1D6C2F808191810E949803219653
:1008F0008701CE15DF058CF3C7E0D0E004C08C2F54
:100900000E94B90221970C171D07CCF38B2D0E9472
:100910004604DF91CF911F910F91FF90EF90DF90F0
:10092000CF90BF900895CF92DF92EF92FF921F93E6
:10093000CF93DF93EC016A017B010E946A050E945C
:10094000DF05182F882321F00E94EC03188150C086
:100950009A818091A001981709F448C08091A00164
:10096000811116C088818983833018F08150888373
:1009700005C08FEF8E0D888382E0898389810E9474
:100980004604B701A60188810E945E041A822EC027
:100990008091A0018130E9F488818983482F50E05B
:1009A000970121503109421753071CF48F5F888348
:1009B00005C082E088838FEF8E0D898389810E9434
:1009C0004604B701A60188810E945E0481E08A8303
:1009D0000DC08091A001843049F48A8388810E94EF
:1009E0004604B701A60188810E945E040E94EC03C0
:1009F000812FDF91CF911F91FF90EF90DF90CF90EB
:100A000008956817C0F4621710F4261B01C021E096
:100A1000482F50E0461B510934E6349FC001359FF2
:100A2000900D1124622F70E00E94870965367105D0
:100A300014F5CB010895861708F5461718F4962F7C
:100A4000941B01C091E070E0681B710984E6869FE9
:100A50009001879F300D1124692F70E0C9010E9419
:100A600087096536710514F064E670E088279927D8
:100A7000861B970B089584E690E0089580E090E04F
:100A800008959C01992324F422273327281B390B2E
:100A9000AB01772324F444275527461B570B4217F5
:100AA000530744F4853191056CF48C3E9F4F64F0FC
:100AB00084E00895653171054CF46C3E7F4F44F03D
:100AC00084E0089583E0089582E0089580E0089529
:100AD00081E008950F931F93CF93DF930E94D80175
:100AE0008C01FC01808191812091A401291710F4CF
:100AF0009093A401492F50E04F5F5F4F2091A301D5
:100B000030E04217530714F49093A3012091A601FB
:100B1000281710F48093A601482F50E04F5F5F4FD5
:100B20002091A50130E04217530714F48093A501EA
:100B3000C6E9D1E09C838D8368818C812E854D85AB
:100B40000E9401059F838E836A818D8128894F854C
:100B50000E94010599878887688579858E819F81A4
:100B60000E9441058A87F80182818C8783818B8767
:100B70000000DF91CF911F910F91089587B38E7F71
:100B800087BB88B3816088BB0895CF93DF930E94B1
:100B9000D801FC012081C6E9D1E030E03B832A8303
:100BA000818190E0998388830E94BE0590EF9E87A3
:100BB00086E48D87988B8F87DF91CF910895B09BC6
:100BC00002C080E0089581E00895CF92DF92EF9215
:100BD000FF920F931F93CF93DF93CDB7DEB72B9781
:100BE0000FB6F894DEBF0FBECDBF82E090E09A83CF
:100BF000898388E08B8306E911E0F80180818C838A
:100C000082818D8384818E8385818F830E9471028E
:100C10008887F801838589870E94DF05C980DA808B
:100C2000EB80FC800D811E812F81388549855A8596
:100C3000682F80E00E94EA012B960FB6F894DEBF81
:100C40000FBECDBFDF91CF911F910F91FF90EF901D
:100C5000DF90CF900895CF93DF93CDB7DEB7C7561F
:100C6000D1090FB6F894DEBF0FBECDBF8FE190E083
:100C70000E947A090E94D5080E94D3010E94C505EE
:100C80000E945D0280E191E09F938F930E94FA0998
:100C90000E9422030E94E4020E941A041F9281E033
:100CA0008F938DE191E09F938F93CE0101967C010C
:100CB0009F938F930E94100A1F921F928EE291E0E1
:100CC0009F938F938E010F5D1F4F1F930F930E9471
:100CD000100A88E0E8E0F1E0DE01AF5BBF4F019071
:100CE0000D928A95E1F7DE01A75BBF4F8EE391E09D
:100CF00011969C938E9388E491E013969C938E9327
:100D000012971596FC92EE921497FE01E15BFF4F4D
:100D10002AE431E031832083938382831583048323
:100D200084E591E0978386838CE591E091878087C5
:100D3000CE018F5B9F4F6B969FAF8EAF6B9784E01A
:100D400090E06D969FAF8EAF6D976F96BFAFAEAFD1
:100D50006F9783E090E0A1969FAF8EAFA197A39687
:100D6000FFAFEEAFA39785E090E0A5969FAF8EAF63
:100D7000A59782E0A6968FAFA6976D964CAD5DAD18
:100D80006EAD7FAD6D970E945E040E94EC030FB6BE
:100D9000F894DEBF0FBECDBF085C1F4F0F2EF5E0ED
:100DA000FF2EF02D0E946A05F80140815181628179
:100DB0007381CE018B599F4F0E9493049E01275A45
:100DC0003F4F02171307C9F5823009F0C7C00E94D0
:100DD0006D020E94E4021F92FF9281E691E09F93D0
:100DE0008F93CE0101969F938F930E94100A82E009
:100DF000A6968FAFA697A1964CAD5DAD6EAD7FADBB
:100E0000A1970E945E0460E080E00E94280460E0F8
:100E10008FE70E9428046FE380E00E9428046FE3BC
:100E20008FE70E9428040F900F900F900F900F9063
:100E30000F908E01035A1F4F91C09E01235A3F4FBE
:100E40000217130709F040C00E94E505F11012C017
:100E50000E94E40283E0A6968FAFA697A5964CADBC
:100E60005DAD6EAD7FADA5970E945E048E010F59FA
:100E70001F4F74C080919501882309F46FC0FA94C4
:100E8000109295011F92FF928DE191E09F938F93B5
:100E9000CE0101969F938F930E94100AA6968FAD64
:100EA000A6970E944604F8014081518162817381B6
:100EB000A6968FADA6970E945E040F900F900F909C
:100EC0000F900F900F904AC0833049F50E94E402C2
:100ED0001F9285E08F9381E691E09F938F93CE01DF
:100EE00001969F938F930E94100A82E0A6968FAF7F
:100EF000A697A1964CAD5DAD6EAD7FADA1970E945A
:100F00005E040F900F900F900F900F900F908E0136
:100F1000035A1F4F0F2EF5E0FF2EF02D1FC0843017
:100F2000B1F40E94E40282E0A6968FAFA6976D9678
:100F30004CAD5DAD6EAD7FAD6D970E945E048E01D0
:100F4000075A1F4F0F2EF5E0FF2EF02D07C08E0120
:100F50000F591F4F0F2EF5E0FF2EF02D8FEF97E169
:100F60000197F1F700C000001DCF1F920F920FB63E
:100F70000F9211242F933F934F935F936F937F931F
:100F80008F939F93AF93BF93EF93FF93CF93DF9391
:100F90001F92CDB7DEB741E06CE2CE0101960E9410
:100FA0002B08898180FF08C040E061E08CE20E944C
:100FB000750881E080939501898181FF08C040E038
:100FC00062E08CE20E94750881E08093950189813E
:100FD00083FF05C040E068E08CE20E9475088981CB
:100FE00084FF05C040E060E18CE20E9475088981C1
:100FF00082FF05C040E064E08CE20E9475088981B0
:1010000088232CF440E060E88CE20E947508898116
:1010100085FF05C040E060E28CE20E94750889818E
:1010200086FF05C040E060E48CE20E9475080F90E6
:10103000DF91CF91FF91EF91BF91AF919F918F91F0
:101040007F916F915F914F913F912F910F900FBEC4
:101050000F901F9018950F931F93CF93DF938C01E0
:10106000D62FC42F82E00E94DE0883E00E9402098E
:101070002C2F30E0A80162E08D2F0E943509DF910E
:10108000CF911F910F910895CF93DF93C82FD62F43
:1010900082E00E94DE0882E00E9402098D2F0E94F9
:1010A00002098C2F0E94020982E00E94F008DF9161
:1010B000CF910895CF93813061F028F0823029F0EC
:1010C000833029F010C0C1E805C0C4E803C0C7E8F8
:1010D00001C0C2E882E00E94DE088C2F0E94020953
:1010E00082E00E94F008CF9108951F93CF93DF9381
:1010F000182FD62FC42F82E00E94DE0885E00E94C0
:101100000209812F0E9402098D2F0E9402098C2F53
:101110000E94020982E00E94F008DF91CF911F91A6
:10112000089582E00E94DE0880EC0E94020982E0BD
:101130000E94F0088FEF9FE20197F1F700C00000D6
:1011400008950E94910840E860EE8FE00E947508C3
:101150008FEF9FE20197F1F700C0000040E660E6E4
:1011600080E60E94750840E660E680E70E94750808
:101170004FEF6FEF8BE20E9475086AE287E00E94F2
:10118000440869E282E90E94440868E282E00E9421
:10119000440840E060EE8FE00E9475088FEF9FE208
:1011A0000197F1F700C0000008958DB181658DB9F8
:1011B0008EEB87BB88B38E6188BB0895811104C014
:1011C00088B38F7E88BB0895813021F488B3877FF0
:1011D00088BB0895823019F488B38B7F88BB08954B
:1011E000811104C088B3806188BB0895813021F4E7
:1011F00088B3886088BB0895823019F488B384600E
:1012000088BB08958FB9779BFECF8FB10895EF9279
:10121000FF920F931F93CF93DF937C018B01D42F09
:10122000842F0E94DE08C0E011C0F701EC0FF11D11
:1012300080810E940209C11104C082E58A95F1F7FC
:1012400004C088E08A95F1F70000CF5F8C2F90E012
:101250008017910754F38D2F0E94F008DF91CF91F2
:101260001F910F91FF90EF900895CF92DF92EF9230
:10127000FF920F931F93CF93DF93C82F062F6A011E
:101280007901862F0E94DE088C2F0E94020982E5D8
:101290008A95F1F710E00CC0E601C80FD91F80E075
:1012A0000E940209888388E08A95F1F700001F5F99
:1012B000812F90E08E159F0578F3802F0E94F00813
:1012C000DF91CF911F910F91FF90EF90DF90CF9022
:1012D000089585B7806885BF80E280BF08955D9BD3
:1012E000FECF8CB980E090E008955F9BFECF8CB17B
:1012F00090E0089590BD89B988E18AB98EE880BDF3
:1013000065E779E08FE699E00E94AF09089597FBC1
:10131000072E16F4009407D077FD09D00E949B0990
:1013200007FC05D03EF4909581959F4F08957095E8
:1013300061957F4F0895AA1BBB1B51E107C0AA1FEF
:10134000BB1FA617B70710F0A61BB70B881F991F66
:101350005A95A9F780959095BC01CD0108950F93FA
:101360001F93CF93DF93009731F46115710519F442
:1013700080E090E03AC08B01EC016EE070E081E02B
:1013800090E00E94130CFC01892B91F380E8838389
:101390000115110571F01387028781E8838380911D
:1013A000A7019091A801892B21F4F093A801E09363
:1013B000A7012097C9F0D187C0878381826083838A
:1013C0008091A9019091AA01892B71F4F093AA014F
:1013D000E093A9018091AB019091AC01892B21F49C
:1013E000F093AC01E093AB01CF01DF91CF911F915E
:1013F0000F910895A0E0B0E0E0E0FAE00C94170E41
:10140000AE014B5F5F4FFA0161917191AF01809125
:10141000A9019091AA010E94320AE2E00C94330ED5
:10142000AEE0B0E0E6E1FAE00C94150E0D891E89FD
:1014300086E08C831A8309838FEF9FE79E838D83D9
:10144000AE01475E5F4F6F89788DCE0101960E9495
:10145000320AEF81F885E00FF11F10822E96E4E04A
:101460000C94310EABE0B0E0E8E3FAE00C94070E28
:101470006C017B018A01FC0117821682838181FF46
:10148000CCC1CE0101963C01F6019381F70193FD99
:10149000859193FF81917F01882309F4BAC1853238
:1014A00039F493FD859193FF81917F01853229F471
:1014B000B60190E00E946D0DE7CF912C212C312CCC
:1014C000FFE1F315D8F08B3279F038F4803279F0FF
:1014D0008332A1F4232D20611DC08D3261F0803351
:1014E00069F4232D216016C0832D8260382EE32DF0
:1014F000E4603E2E2AC0F32DF8601DC037FC2DC0DD
:1015000020ED280F2A3040F08E32B9F436FC81C12C
:10151000232D2064322E19C036FE06C08AE0989E24
:10152000200D1124922E11C0EAE02E9E200D1124D0
:10153000222EF32DF0623F2E08C08C3621F4832D2D
:101540008068382E02C0883641F4F70193FD8591FA
:1015500093FF81917F018111B3CF982F9F7D955487
:10156000933028F40C5F1F4F9FE399830DC083369F
:1015700031F0833771F0833509F059C021C0F8018B
:10158000808189830E5F1F4F88248394912C53019F
:1015900013C02801F2E04F0E511CF801A080B18069
:1015A00036FE03C0692D70E002C06FEF7FEFC5010A
:1015B0000E94620D4C018201F32DFF773F2E16C071
:1015C000280122E0420E511CF801A080B18036FEB5
:1015D00003C0692D70E002C06FEF7FEFC5010E946C
:1015E000500D4C01F32DF0683F2E820133FC1BC0DF
:1015F000822D90E088169906B0F4B60180E290E062
:101600000E946D0D2A94F4CFF50137FC859137FEC9
:1016100081915F01B60190E00E946D0D21102A9426
:1016200021E0821A91088114910471F7E8C0843690
:1016300011F0893641F5F80137FE07C060817181EC
:10164000828193810C5F1F4F08C060817181072EDA
:10165000000C880B990B0E5F1F4FF32DFF763F2E6A
:1016600097FF09C090958095709561957F4F8F4F3A
:101670009F4FF0683F2E2AE030E0A3010E94A90DA1
:10168000882E861845C0853731F4232D2F7EB22E43
:101690002AE030E025C0932D997FB92E8F36C1F016
:1016A00018F4883579F0B5C0803719F0883721F003
:1016B000B0C0E92FE061BE2EB4FE0DC0FB2DF4607A
:1016C000BF2E09C034FE0AC0292F2660B22E06C0E4
:1016D00028E030E005C020E130E002C020E132E047
:1016E000F801B7FE07C060817181828193810C5F30
:1016F0001F4F06C06081718180E090E00E5F1F4F38
:10170000A3010E94A90D882E8618FB2DFF773F2E7E
:1017100036FE0DC0232D2E7FA22E891458F434FEE0
:101720000BC032FC09C0832D8E7EA82E05C0B82CBC
:10173000A32C03C0B82C01C0B92CA4FE0FC0FE011D
:10174000E80DF11D8081803321F49A2D997EA92E18
:1017500009C0A2FE06C0B394B39404C08A2D867853
:1017600009F0B394A3FC11C0A0FE06C0B21488F423
:10177000280C922C9B180EC0B21460F4B60180E2C3
:1017800090E00E946D0DB394F7CFB21418F42B18AB
:1017900002C0982C212CA4FE10C0B60180E390E07A
:1017A0000E946D0DA2FE17C0A1FC03C088E790E067
:1017B00002C088E590E0B6010CC08A2D867859F009
:1017C000A1FE02C08BE201C080E2A7FC8DE2B6015F
:1017D00090E00E946D0D891438F4B60180E390E02A
:1017E0000E946D0D9A94F7CF8A94F301E80DF11DD4
:1017F0008081B60190E00E946D0D8110F5CF22200E
:1018000009F442CEB60180E290E00E946D0D2A9468
:10181000F6CFF6018681978102C08FEF9FEF2B965E
:10182000E2E10C94230E0F931F93CF93DF93869FD7
:101830008001879F100D969F100D1124C8010E94F2
:101840002F0CEC01009729F0A80160E070E00E94E5
:101850005B0DCE01DF91CF911F910F9108950F93F2
:101860001F93CF93DF938230910510F482E090E0D4
:10187000E091AF01F091B00120E030E0A0E0B0E0F5
:10188000309719F14081518102811381481759071E
:10189000C8F08417950769F4109731F012960C93ED
:1018A000129713961C9327C00093AF011093B001B9
:1018B00022C02115310519F04217530718F49A0177
:1018C000BD01EF01DF01F801DBCF21153105F9F092
:1018D000281B390B2430310580F48A819B816115E6
:1018E000710521F0FB019383828304C09093B001C2
:1018F0008093AF01FE01329644C0FE01E20FF31F58
:101900008193919322503109398328833AC02091E1
:10191000AD013091AE01232B41F4209102013091B1
:1019200003013093AE012093AD012091000130916D
:1019300001012115310541F42DB73EB74091040155
:1019400050910501241B350BE091AD01F091AE01E2
:10195000E217F307A0F42E1B3F0B2817390778F086
:10196000AC014E5F5F4F2417350748F04E0F5F1FE5
:101970005093AE014093AD018193919302C0E0E09A
:10198000F0E0CF01DF91CF911F910F910895CF9398
:10199000DF93009709F481C0FC0132971382128211
:1019A000A091AF01B091B001109781F420813181F5
:1019B000820F931F2091AD013091AE012817390796
:1019C00051F5F093AE01E093AD0167C0ED0120E069
:1019D00030E0CE17DF0740F44A815B819E0141155C
:1019E0005105F1F0EA01F5CFD383C28340815181E3
:1019F000840F951FC817D90759F488819981840FDE
:101A0000951F0296918380838A819B819383828331
:101A10002115310529F4F093B001E093AF013DC0E9
:101A2000E901FB83EA8349915991C40FD51FEC1753
:101A3000FD0761F480819181840F951F0296E90171
:101A400099838883828193819B838A83E0E0F0E09D
:101A500012968D919C911397009719F0FD01DC016E
:101A6000F7CF8D919C9111979D012E5F3F4F820F73
:101A7000931F2091AD013091AE012817390769F409
:101A8000309729F41092B0011092AF0102C0138276
:101A90001282B093AE01A093AD01DF91CF91089572
:101AA000FC010590615070400110D8F78095909529
:101AB0008E0F9F1F0895DC0101C06D93415050406F
:101AC000E0F70895FC016150704001900110D8F7D3
:101AD000809590958E0F9F1F08950F931F93CF931E
:101AE000DF93FB01238121FD03C08FEF9FEF2CC00B
:101AF00022FF16C046815781248135814217530742
:101B000044F4A081B1819D012F5F3F4F3183208339
:101B10008C93268137812F5F3F4F3783268314C0F4
:101B20008B01EC01FB010084F185E02D0995892BE7
:101B3000E1F6D80116968D919C911797019617960C
:101B40009C938E931697CE01DF91CF911F910F91A9
:101B50000895FA01AA27283051F1203181F1E89443
:101B60006F936E7F6E5F7F4F8F4F9F4FAF4FB1E090
:101B70003ED0B4E03CD0670F781F891F9A1FA11D8B
:101B8000680F791F8A1F911DA11D6A0F711D811D8C
:101B9000911DA11D20D009F468943F912AE0269F51
:101BA00011243019305D3193DEF6CF010895462FB0
:101BB0004770405D4193B3E00FD0C9F7F6CF462F91
:101BC0004F70405D4A3318F0495D31FD40524193FA
:101BD00002D0A9F7EACFB4E0A695979587957795B7
:101BE0006795BA95C9F700976105710508959B013E
:101BF000AC010A2E06945795479537952795BA95C7
:101C0000C9F7620F731F841F951FA01D08952F929F
:101C10003F924F925F926F927F928F929F92AF927C
:101C2000BF92CF92DF92EF92FF920F931F93CF93C9
:101C3000DF93CDB7DEB7CA1BDB0B0FB6F894DEBF60
:101C40000FBECDBF09942A88398848885F846E8486
:101C50007D848C849B84AA84B984C884DF80EE80D0
:101C6000FD800C811B81AA81B981CE0FD11D0FB6D9
:101C7000F894DEBF0FBECDBFED010895F894FFCFFD
:101C80000000B101200000147101480179018401B4
:101C9000526573746172746564090A0D00506F694E
:101CA0006E7473206C6566743A2020256400596F49
:101CB00075722073636F72653A2020256400476F48
:101CC0006F64206C75636B00200047616D65204F69
:101CD000766572005265737461727400517569742F
:101CE00000506F696E7473206C6566743A202564C9
:101CF0000057656C636F6D65007374617274206763
:101D0000616D65006869676873636F726573000071
:00000001FF
